:0200000270008C
:10500000000001205D530700455307004753070088
:10501000495307004B5307004D53070000000000A1
:105020000000000000000000000000004F530700D7
:105030005153070000000000535307005553070069
:1050400089770700FD620700575307005753070091
:10505000575307005753070057530700F9770700C6
:10506000575307005753070057530700575307007C
:10507000575307005753070057530700575307006C
:105080005D960700497607005753070057530700FE
:10509000575307005753070057530700575307004C
:1050A000575307005753070057530700575307003C
:1050B000575307005753070000000000000000008E
:1050C000575307005753070057530700575307001C
:1050D000ED920700575307005753070000000000E8
:1050E00000000000000000000000000000000000C0
:1050F00000000000000000000000000000000000B0
:10510000000000000000000000000000000000009F
:10511000000000000000000000000000000000008F
:10512000000000000000000000000000000000007F
:10513000000000000000000000000000000000006F
:10514000000000000000000000000000000000005F
:10515000000000000000000000000000000000004F
:10516000000000000000000000000000000000003F
:10517000000000000000000000000000000000002F
:10518000000000000000000000000000000000001F
:10519000000000000000000000000000000000000F
:1051A00000000000000000000000000000000000FF
:1051B00000000000000000000000000000000000EF
:1051C00000000000000000000000000000000000DF
:1051D00000000000000000000000000000000000CF
:1051E00000000000000000000000000000000000BF
:1051F00000000000000000000000000000000000AF
:10520000314932480A1A02D0072291438D4630496B
:1052100030480A1A06D00722914381F309880222F6
:1052200082F314882C482D492D4A00F03CF82D4873
:105230002D492E4A00F037F82D482E492E4A00F00D
:1052400032F82E482E492F4A00F02DF82E482F49CB
:105250002F4A00F028F82F482F49304A00F023F851
:105260002F483049304A00F01EF8304830490022BB
:1052700000F024F82F483049002200F01FF82F4A90
:1052800090471F481F49884205D00268043003B484
:10529000904703BCF7E700208646EC46002000213B
:1052A000274A9047FEE7884207D0521A05D0037874
:1052B00001300B700131013AF9D17047884202D0B8
:1052C00002700130FAE770470000012000F800206A
:1052D000000001200000012080BE07002400002003
:1052E000D8010020B8530700B8530700E8B70700FB
:1052F00080BE0700240000202400002004B807001E
:1053000004B8070004B8070004B8070004B8070091
:1053100004B8070004B8070004B8070080BE0700FF
:1053200034C00700D8010020D8010020D801002097
:10533000A41A0020A41A0020A41A002085530700F4
:10534000E5530700FEE7FEE7FEE7FEE7FEE7FEE7C0
:10535000FEE7FEE7FEE7FEE700F002B8FFF7FCBF5E
:105360000F484FF00701884385460E4880470E4896
:10537000016841F470010160BFF34F8FBFF36F8F7D
:10538000FFF73EBF09480A490A4A884207D0521A25
:1053900005D0037801300B700131013AF9D1704723
:1053A000000001201D97070088ED00E0F0B707001E
:0853B000100000202400002081
:1053B800BFF34F8F0549064BCA6802F4E0621343F6
:1053C800CB60BFF34F8F00BFFDE700BF00ED00E0EB
:1053D8000400FA05704708B5FFF7EAFF08B501F0C1
:1053E8009FFB01F058FA01F03DF801F073FA04F060
:1053F800FDF84FF48051002003F0A1FE08B1FFF73B
:10540800D7FF0548C0F5FC2103F099FE0028F6D126
:10541800024803F0A9FDF2E700500700DD5307003A
:105428007047000008B503480931417000F0AEFB31
:10543800002008BD2400002021498B7A70B504465D
:10544800002B31D0837B082B2ED100F108060622D1
:105458000431304606F035F9054628BB1948E3887B
:10546800A0F8033006223146053006F05DF92279AE
:105478001548093A04F10F0106F056F92279124944
:105488001248093A05F022FCE27B0123082A23800E
:1054980001BF09232371E31CA5700EBFC4F80831AE
:1054A800A370C4F8085170BD204600F0A1FB084B5A
:1054B8001B78022BF7D1BDE8704000F0B9B800BFE7
:1054C800F002002024000020FB010020E001002061
:1054D800BA06002010B5064C237833B1054B984224
:1054E80003D000F097F800232370002010BD00BF00
:1054F800D8010020E8B7070038B50D4D2B78A3B9BF
:105508000C4B0D4A5A600D4A9A600D4CF122DA6034
:105518000C4A1A6120600C4A0C485A6100F050F895
:1055280023680120287003B19847002038BD00BFC8
:10553800D8010020E00100202D540700295407005D
:10554800DC01002030000020E8B7070041540700C4
:10555800024BA3F82F10A3F8310070472601002052
:1055680010B5074C207801F06BF8FF23237000F08A
:1055780027FB01F069F9034B04221A7010BD00BF24
:1055880070010020BA06002010B5054C207801F003
:1055980057F8FF232370BDE8104001F0CBB800BFD7
:1055A8007001002010B5054C207801F049F8FF2360
:1055B8002370BDE8104001F0B9B800BF70010020A9
:1055C80070B5104E33780446D3B900F04FFC01F0A3
:1055D800B9F80D480D4D01F023FB01F0CFF8C5F8DF
:1055E800020001F0C5F8C5F8060001F04FF968613E
:1055F8000748002C18BF204600F098FA01233370A2
:1056080070BD00BF3803002059550700260100204F
:10561800F95B070010B5054C23782BB100F0D0FAE0
:1056280001F038FB0023237010BD00BF38030020B1
:105638002DE9F84F334B1B787BB3334C2378022B7F
:1056480011D106223149A01806F03BF8054630B3BF
:1056580003232F48237001F045F900F0B1FA01F057
:10566800F3F8042323702B4CD4E904AB5AEA0B0358
:1056780031D101F097FA284BA3F8330001F004F870
:10568800C4E90401D4E9066756EA07032ED101F0FC
:10569800EFFA00F0F9FFC4E90601BDE8F88FDFF87A
:1056A80084A09AF80030FF2BDDD11C4800F01AFFC7
:1056B800FF288AF80000D6D003231548237001F08C
:1056C80011F917499AF80000D1F80F1001232A465A
:1056D80000F024FFC7E700F0D7FF1AF5F0164BF1EA
:1056E80000078F4208BF8642C3D3CBE700F0CCFF48
:1056F80016F5F01847F10009894508BF8045C6D35B
:10570800CBE700BF38030020BA06002024B8070002
:1057180004B80700F00200202601002069550700A0
:1057280010030020700100207047000010B50A4CDB
:105738002378FF2B0ED1094800F0D4FEFF282070F3
:1057480008D00749BDE81040D1F813100123002202
:1057580000F0E4BE10BD00BF7001002091550700A5
:105768001003002010B50A4C2378FF2B0ED10948EE
:1057780000F0B8FEFF28207008D00749BDE81040A7
:10578800D1F813100123002200F0C8BE10BD00BFDD
:1057980070010020AD55070010030020AF4B1B78A7
:1057A8002DE9F0470646002B00F0B580DFF8E4A2AB
:1057B800DFF8E49254469AF80030092BFDD8DFE868
:1057C80013F076008F00AC00E300E50004017B01D4
:1057D8000A002B004900A24B9F7A0FB1002319E061
:1057E800A04DA14801F07EF809232B714FF6FF73F5
:1057F800EB8000F07BFF0622014605F1080005F06A
:1058080093FF01233846AB7300F066FDE81C00F0F7
:10581800FBFC08232370CEE79448954E40F2726152
:1058280000F01EFD054620B10223337009232370C2
:1058380071E0904B4FF4A0201F7801F04DF901233F
:1058480000F548212A46384600F068FE01233370E7
:105858000723ECE7C6B1834D00232B70864B2846FF
:105868001B689847D5F808313BB14FF4FA7000F03F
:1058780041FFD5F8080100F0C7FC794B9B7A1BB1B2
:105888007E4801F02FF8A9E77A4B4FF4A0201D7845
:1058980001F022F9012300F548210022284600F0F2
:1058A8003DFE07232370724B01221A7033E06D4DC1
:1058B800734801F017F8092372492B7106224FF635
:1058C800FF7305F10800EB8005F02EFF022300208E
:1058D800AB7300F001FDE81C00F096FC012399E78A
:1058E8006248634E40F2726100F0BAFC054610B19E
:1058F800022333709BE75F4B4FF4A0201F7801F021
:10590800EBF8012300F548212A46384600F006FE48
:10591800012333702570BDE8F087564F36B3514DDB
:1059280000232B70544B28461B689847D5F808313C
:105938003BB14FF4FA7000F0DDFED5F8080100F035
:1059480063FC2B7893B1504800F0CCFF4F4B38786C
:10595800B3F80310B3F801204A430023114600F0BE
:10596800DDFD4B4B00221A60042353E74FF4A020BF
:105978003D7801F0B1F8012300F5482100222846BE
:1059880000F0CCFD00238DE704238BE73F4F3878E8
:1059980000F0A2FCD7F80710344800F061FC054677
:1059A80020B1334B02221A70052340E7384A1368A6
:1059B80001331360FA7D934201D203232AE72D4B6A
:1059C800187800F0D1FD2570F5E6264DDFF8BC808B
:1059D8002F4F0023AB702846002E3CD02B70264B4F
:1059E8001B689847D5F808313BB14FF4FA7000F0BE
:1059F80081FED5F8080100F007FC1E4B18786B787B
:105A080033B3B8F80320EB889A4205D3B8F80510E9
:105A18008B421AD95B1AD21AB8F80130D8F80B1091
:105A28005A43511A002300F079FD2B789BB10023CB
:105A38003B6098F817203B689A4233D9AB786BB330
:105A48000B4B03221A700123F1E638BFCA1AE3E7A9
:105A580000F08AFDE9E73B680133E9E755040020D7
:105A6800F0020020480300202AB807004B0300205A
:105A780057040020540400204003002043B80700C6
:105A880054B80700F402002069B80700100300208A
:105A98003C03002056040020440300206B78002BB0
:105AA8008BD161E70F4B187800F05EFD00230E489C
:105AB800237000F017FF7EE6002E3FF455AFD9F8AB
:105AC800000000283FF450AF084B5B78002B14BF50
:105AD80003230423237000F097FB0023C9F8003048
:105AE80069E600BF540400207AB807004803002084
:105AF800044B1A78022A03D100221A70FFF74EBE0F
:105B0800704700BF57040020074B1A78012AD0B20B
:105B180003D100221A70FFF741BE1A78032A02D176
:105B280000201870F7E77047570400200F4A1378D1
:105B380010B5D3B9C8B1012414700D4A13700D4AB9
:105B4800072111700C4A13600C4B186000F0AAFD75
:105B58000B4800F07BFA0B4800F0C4FC0A4B1870A5
:105B68002046BDE81040FFF719BE10BD55040020BF
:105B7800570400205604002044030020400300205E
:105B8800F95A0700115B070054040020094B10B5AF
:105B98001C785CB160B1084B1A78032A06D1002240
:105BA8001A70064B18600120FFF7F8FD204610BD5B
:105BB8000446FBE755040020570400204403002056
:105BC800084A08B513785BB100231370064A1360BE
:105BD80000F018FA054B1878BDE8084000F030BD11
:105BE80008BD00BF550400204003002054040020D5
:105BF8002DE9F84FDFF870B24FF4807707809BF8F3
:105C08000A304FF0000A044680F802A000F10808A4
:105C180013BBC0F80831437000F068FD0622014646
:105C2800404605F04EFD98B9A57B012D10D17F485F
:105C380000F058FE2379132B0AD1204600F80F5B99
:105C480000F044F900F012F9BDE8F84FFFF76CBD19
:105C580000232370BDE8F88F861D304600F065FEEE
:105C68000546304600F05EFE7149814606224046F0
:105C780005F027FD10BBA37BC4F80801032B1BD13B
:105C88006C4B5A89ADB2AA4240F0BB805B694B4568
:105C980000F0B780684800F025FE227967480123A4
:105CA800093A2370D2B2314600F044FE10B1002305
:105CB8006370CFE70123FBE72780CBE706220BF1D0
:105CC8000401404605F0FDFC50B15D4BE188B3F896
:105CD80005205C4800F006FE2780C4F808A1B9E753
:105CE800E31CC4F80831A37B0F2B00F29880DFE88F
:105CF80003F02496087F2B96963B96634B969696D0
:105D08008C71514800F0EEFD40F201132380237995
:105D1800312B0DD14A4D282204F10F01284605F0F8
:105D280003FD6B79AA7943EA0223E380022300E0AA
:105D38000323E3730A2323718CE7444800F0D2FD60
:105D480040F201132380F1E7414800F0CBFD40F217
:105D5800011323802379312BEAD1282204F10F0182
:105D6800374805F0E1FCE1E73A4800F0BBFD40F2B6
:105D780001132380324931232371282204F10F00B3
:105D8800BDE8F84F05F0D0BC33482A4D00F0AAFD15
:105D980040F20113238000F069FCC5F81D00C5F826
:105DA800211000F071FC5323C5F82910C5F825000F
:105DB8004A2223712946E1E7284800F093FD40F282
:105DC800011323800223E3730A232371BDE8F84FEC
:105DD800FFF7ACBC224800F085FD40F20113238098
:105DE8000223E3730A232371BDE8F84FFFF7BABC17
:105DF8000023C4F808310F4B5B89ADB2AB423FF4C6
:105E080049AF40F20113238024E7164800F06AFDE9
:105E180001232380A723094923719E22AEE74FF46B
:105E2800807323800023C4F8083113E785B807007E
:105E3800A6B90700260100209CB80700BA06002072
:105E480010030020B7B80700EEB80700FEB8070037
:105E58000EB9070026B907003EB9070054B9070074
:105E68006FB9070080B90700F002002038B54FF07D
:105E780010250C4CD5F884302380D5F88830638001
:105E8800D5F88C306360D5F89030238100220A2140
:105E9800204600F02BFDD5F880301B1A5842584197
:105EA800A07238BDF0020020074B0222C3F8042577
:105EB800D3F80024002AFBD00122C3F81425D3F814
:105EC8000024002AFBD0704700E0014038B50446A2
:105ED80030B3144DFFF7E8FF0123C5F80435D5F8B2
:105EE8000034002BFBD000220A21204600F0FEFCE3
:105EF8004FF010232288C3F88000C3F884206288FA
:105F0800C3F888206268C3F88C202289C3F89020DF
:105F18000023044AC5F80435D2F80034002BFBD01E
:105F280038BD00BF00E0014010B50023C1B21846DB
:105F380021FA03F2C3F1070402F001020133A2407F
:105F4800082B40EA0200F3D110BD000070B5184ECE
:105F5800184C3278022A18D11023C4F808330123C8
:105F68002361D4F81031002BFBD0002500233370B7
:105F780000F0ABFC104B1B68CBB10E4AD2F84815A9
:105F88002846C9B2BDE8704018470C4B187800F095
:105F9800EBFAD4F80054012DE7D1D4F804110848DD
:105FA800D4F81C21D4F8483500F09CFCDEE770BD1D
:105FB8005D04002000100040580400205E0400200A
:105FC800ACB9070038B50D4C2578ADB1002000F00C
:105FD80067FF0B4B1A78012A0CBF022200254FF0ED
:105FE800000008BF1A7000F05DFF2DB123781BB1C7
:105FF800BDE83840FFF7AABF38BD00BF5C040020E9
:106008005D0400200D4A08B51378ABB10023137066
:106018000B4A13600B4B1022C3F8082301221A61A4
:10602800D3F81021002AFBD0074B187800F008FBA2
:10603800BDE8084000F0BAB908BD00BF5C04002004
:1060480058040020001000405E0400202DE9F047AD
:106058005D4E96F800800446B8F1000F40F0998034
:106068005A4B5B4883F8008000F03CFA594B187093
:10607800594B1C6000F06EF947468046002800F036
:106088008880564C04234FF00109C4F80C35C3200E
:10609800C4F81095FFF748FF0546C220FFF744FFF4
:1060A8000304C12043EA0565FFF73EFF8246C0208E
:1060B800FFF73AFF054345EA0A25C4F82455C720E7
:1060C800FFF732FF0546C620FFF72EFF0304C42062
:1060D80043EA0565FFF728FF2843C4F82805484622
:1060E800FFF722FF054640F22310FFF71DFF0304C8
:1060F8003B4843EA0565FFF717FF82463948FFF733
:1061080013FF054345EA0A25C4F81C558920FFF703
:106118000BFF054648F6AB10FFF706FF03043248AD
:1061280043EA0565FFF700FF82463048FFF7FCFEAB
:1061380045EA000343EA0A23C4F820352C4BC4F887
:106148002C75C4F83095C4F814352A4BC4F81835A2
:106158000323C4F83435D4F8343503F00303022B91
:106168001AD14FF6FF73C4F83C35234BC4F83835C1
:106178001A4B224AC3F8042540F21312C3F800222E
:106188001F4B002283F8012302221A6062B6012302
:1061980033704046BDE8F087D4F8343503F0030384
:1061A800012B05D1FF23C4F83C3540F20713DDE786
:1061B800D4F8343503F00303032BD9D1114BC4F8B9
:1061C8003C3540F25B63D1E75C0400205D040020AD
:1061D800CD5F07005E040020580400200010004036
:1061E8004523010067452301CDAB8900EFCDAB897D
:1061F80008011000FF000301211001005F040020C6
:1062080000E100E05555550038B5124B1B7813B91D
:106218000025284638BD0028FAD00F4C0F49002326
:1062280003708370C4F80031C4F80C31C4F810311D
:10623800C4F8041500F0C8F805460028E8D000F0B6
:1062480038FB01232360D4F81031002BFBD000F079
:106258003CFBDEE75C040020001000405F040020E7
:10626800184B1B7870B50D4613B90024204670BD35
:106278000028FAD0144B0026C3F800610146C3F881
:106288000C611248C3F8106100F0C4F804460028F5
:10629800EBD035B10E48012300783246294600F08C
:1062A8003DF900F006FB084B1022C3F80423002236
:1062B800C3F80421C3F81C2101225A60054B1A7047
:1062C800D4E700BF5C040020001000405F040020F9
:1062D8005E0400205D04002027289FBF0130044B86
:1062E8004000C3F8080594BF01200020704700BF94
:1062F8000010004070B5144E34781CB3134BD3F81B
:106308001021FAB1D3F80423D2061BD51022002598
:10631800C3F808232846C3F8105100F0C1FD0C4B00
:106328001A78012A0CBF03222C464FF0000008BF40
:106338001A7000F0B7FD2CB133781BB1BDE870407E
:10634800FFF704BE70BD00BF5C04002000100040D1
:106358005D040020104B1878E0B901221A700F4B29
:106368000221C3F800150E49C3F814150D49C3F8E6
:1063780004150D49C3F80815C3F80001C3F808014E
:106388001A60D3F80021002AFBD0D3F80801B0FA2C
:1063980080F04009704700BF6C06002000F0004004
:1063A800610500200000010178010020044A1378EB
:1063B80023B100231370034AC2F80035704700BFA9
:1063C8006C06002000F00040104B10B51C78DCB1C2
:1063D8000F4BC3F80C05C3F81015D3F8042522F0A9
:1063E8000102C3F80425D3F80425C3F804250022C4
:1063F800C3F80021C3F80821C3F80421C3F8042115
:10640800C3F8082101225A60204610BD6C060020FE
:1064180000F00040114B10B51C78ECB1104BC3F8DC
:106428000C05C3F81015D3F8042522F00102C3F8AF
:106438000425D3F8042542F00102C3F804250022FC
:10644800C3F80021C3F80821C3F8042103F58033F9
:106458004FF00072C3F80425204610BD6C060020DA
:1064680000F0004007B5194A13785BBB0121117091
:10647800174A13701373137682F8243000F084FBE4
:1064880020B9144B00200021C3E9000100F06CFF83
:10649800002000F089FF104B104A18689B88009074
:1064A800ADF80430694600230D48ADF800308DF88A
:1064B800023001F001F80A48012101F0A3F8084868
:1064C80001F038F803B05DF804FB00BF780600203F
:1064D8007C06002008000020E2B90700A16507003B
:1064E800E8B907000B4B1B7870B5024653B10A4C4C
:1064F80000230C2505FB03F1D8B20E5D26B101334C
:10650800042BF7D1FF2003E06318012565529A6038
:1065180070BD00BF780600207C06002070B50E4CC8
:106528002478A4B1032814D80C240C4E44433519FC
:10653800345D64B1AB700A4B6A60D3F8042501235B
:106548000A440146074801F01BF801236B702046F6
:1065580070BD0024FBE700BF780600207C06002001
:1065680000100140E8B90700084B1B786BB10328FD
:106578000BD80C23064A4343D118D35C2BB1002314
:106588004B700146034800F0E1BF704778060020D1
:106598007C060020E8B9070070B5044600B301285E
:1065A8001ED002281CD003281AD0052817D11F484E
:1065B80001F038F81E49D1E900230130121843F1DF
:1065C80000031A48C1E9002301F02CF81949D1E960
:1065D80000230130121843F10003C1E9002370BD04
:1065E8000C23154E6343F518F35CD3B16B78C3B134
:1065F800AB785BB12046FFF7B7FF0C2000FB0460C7
:106608008368002BEBD0BDE8704018470B4B6A68D5
:10661800D3F8041505480A440123214600F0B0FFC9
:10662800EBE72046BDE87040FFF79EBFE8B90700DA
:1066380070060020080000207C06002000100140A1
:1066480038B5084B1B78044653B1032808D80C23E7
:10665800054D5C432B5D1BB1FFF786FF00232B55CF
:1066680038BD00BF780600207C060020044BD3F814
:106678000405044BD3E90023101843F100017047C7
:106688000010014070060020044BD3F80405044BA9
:10669800D3E90023101843F10001704700100140AE
:1066A800080000200F4B1A78D2B901221A704FF057
:1066B80080520D4BD2F8A4101970D2F8A410090A10
:1066C8005970D2F8A410090C9970D2F8A410090EC8
:1066D800D970D2F8A8101971D2F8A820120A5A71E4
:1066E800704700BFB2060020AC0600200048704783
:1066F800AC06002020B1034B800143F0010318478A
:10670800704700BFF0B90700BFF34F8F0549064B2C
:10671800CA6802F4E0621343CB60BFF34F8F00BF37
:10672800FDE700BF00ED00E00400FA0508B5FFF73B
:10673800EBFF000008B5024BB1221A60FFF7E4FF37
:106748001C05004038B5084D2C785CB9204603F08C
:1067580047F9204603F0BEFC03F054FD034B1860D4
:1067680001232B7038BD00BFB3060020B4060020FB
:10677800014B9868704700BF18130020014BD86878
:10678800704700BF181300200D4B1B7810B50BB9CC
:10679800012010BD0B4800F094F900210446094877
:1067A80000F088F904F6FF74074B201A010B002249
:1067B800186803F02DF9054B01221A70E9E700BFAC
:1067C800B3060020BA060020B4060020B806002050
:1067D80070B5184B1B78BCB005460C4613B90120A0
:1067E8003CB070BD48B911F8014B1348224604F07B
:1067F8009BFF124BC3E90E44F2E70146104800F034
:1068080059F921460246019002A804F08DFF0D4B6C
:106818000B481E68002100F04DF90446284600F098
:1068280057F93044019A002302A9001B03F0E2F84B
:10683800D6E700BFB8060020741300201813002004
:10684800BA060020B406002008B50D4B1B780121BC
:106858009BB10C4B0020596103F02CFC0022012154
:106868004FF4BE2003F0D4F8074900239E224FF4CA
:10687800BE2003F0BFF8FFF747FF084608BD00BF7A
:10688800B806002018130020BA0600204FF4BE23D3
:10689800D3F80D0070474FF0804301220021C3F860
:1068A8001825C3F804119A60D3F80421002AFBD0F4
:1068B80070474FF080430022C3F8002101221A607C
:1068C800D3F80021002AFBD070474FF08043012203
:1068D8005A607047024B1A780AB901221A70704739
:1068E800B90600200FB404B07047000030B53AB1C3
:1068F8001368DB430A4D0144814204D1D84330BDBB
:106908004FF0FF33F6E710F8012B5340082213F03D
:10691800010418BF2C46013A84EA5303F7D1EBE788
:106928002083B8EDD0F80E007047B0F80900C0B267
:1069380070470000F7B590F800C0ACF10203012BD6
:1069480004460D463FD9C97A2B7B99423BD2581E43
:10695800C0B28A2837D8687BE82834D8A2F10A065A
:10696800F6B2E72E2FD80131994201D0F12A2AD167
:106978002E7A721F5642ACF1040E5641BEF1010F39
:10698800D5F80E2004F1060705F102011ED8D4F847
:106998000DC094451DD1E2789A421AD1237B8342D7
:1069A80017D1637CB34214D10622384604F0BCFEEA
:1069B800B5F80930A4F801302B88A38002233A489F
:1069C8002370FFF78FFF002003B0F0BDBCF1000F6C
:1069D80025D1B5F80930A4F801302B7BE3706B7B27
:1069E8002373D5F80E30C4F80D302B88A380667455
:1069F8000622384604F098FE0023E07804F11202DB
:106A08001E46D9B288422CD8284B9C4201D1FFF7A8
:106A1800BBFE012326482370FFF764FF1BE0B4F890
:106A280001E0B5F809C0E645D3D194F803C09C4508
:106A3800CFD1237B8342CCD1D4F80D309342C8D137
:106A480006223846019104F03CFE01990028C0D185
:106A5800637CB342BDD1E87A23189B7C2BB101201B
:106A6800B2E702F8016B0133CBE7104B9C4203D12C
:106A780005F11201FFF7ACFEEB7A234401229A7468
:106A8800E17804F112020023D8B2884205D3022328
:106A980005482370FFF726FFE1E712F8010B0133E1
:106AA8000028F1D1DBE700BF38BA0700BA0600209A
:106AB80059BA0700C378013199420CBF007BE8201E
:106AC8007047C378027B013BE82000FB0320704736
:106AD800E82358437047000037B5104B01220021C6
:106AE8000446C3F8001101A81A600422D3F8005123
:106AF800002DFBD0013AD3F8085500F8015B12F0DD
:106B0800FF02C3F80011F1D101225A600198A04296
:106B180001D803B030BD4008F9E700BF00D00040FD
:106B2800174B1A7872B901221A704FF08043D3F8C4
:106B3800001441B9134B19704FF08043D3F8002467
:106B4800C3F800247047D3F80014C80703D50D4BC9
:106B580004221A70F0E7D3F80014890701D5094B0D
:106B6800F7E7D3F80024120702D5064B0322F0E713
:106B7800D3F800345B07DFD5024B0222E9E700BFF8
:106B8800580700205907002008B5044B1B780BB99B
:106B9800FFF7C6FF024B187808BD00BF5807002052
:106BA80059070020104A13781BB9012111700F4AA8
:106BB80013600F4B0022C3F8002101221A60D3F89A
:106BC8000021002AFBD0D3F80825D3F8080593053F
:106BD800074B48BF6FEA80504FF0010248BF6FEA89
:106BE80090505A60704700BF5A07002004C5004003
:106BF80000C0004003785BB9064B1888064B1A881A
:106C08008242064A88BF188012680AB1198810475C
:106C1800704700BF60070020A00100205C0700202B
:106C28001FB50E4B1C78B4B901221A700C4A0D4BD3
:106C3800516818601068127A01AB03C30A491A70C8
:106C480068460A4B8DF80640009300F081FE01A9C2
:106C5800204600F0C5FE04B010BD00BF5B07002051
:106C680079BA07005C070020FD6B070002000601E7
:106C780008B5064B1B783BB10548012100F00AFF17
:106C8800BDE8084000F05ABF08BD00BF5B07002000
:106C980060070020034B1A781AB100221A7000F01E
:106CA800CBBF70475B07002043689B68184708B54F
:106CB800436808305A7901F0F4F8002008BD2DE93E
:106CC800F0410C469CB008461F460392FFF7ECFFC4
:106CD800D4F80480039998F80550BD4228BF3D4672
:106CE80006462A4604A801F0D1F898F8052022990A
:106CF8000CA801F0D6F800960CAB2A4604A904F1BA
:106D0800080001F04FFF002848F2425018BF002049
:106D18001CB0BDE8F08100004B1C30B5DB00044618
:106D280012F003009BB20DD1074D2A601A44074B9D
:106D38001A60074B1870074B1870074B1C80074BDD
:106D4800198030BD0720FCE7680700206407002091
:106D580062070020700700206C0700206E070020E3
:106D68002DE9F047274F3B888B4206460D46904653
:106D780044D3002000F094F8234B24481978244B7E
:106D880000881C78E2B2844238BF0132C9B234BFED
:106D9800D2B2002291422BD01C781A78D1B29042FC
:106DA80086BF0131C9B200211970002000F07AF8BD
:106DB8004FF6FF739C4223D0DFF85C90D9F800208F
:106DC8004FEAC40A42F8348002EBC4039EB195B17D
:106DD800104B38881B682A4604FB0030314604F003
:106DE800A3FCD9F80030534400209D80BDE8F0870B
:106DF8004FF6FF74D9E700209880F7E70920F5E7F8
:106E08000420F3E76C070020700700206E070020BD
:106E1800620700206407002068070020F8B5114CBD
:106E2800114D264622782B789A4200D1F8BD0F489A
:106E38000F4A2378126807880E4802EBC3010068DE
:106E480052F83320898803FB070090470A492278C3
:106E58000988D3B2914286BF0133DBB20023337075
:106E6800E0E700BF70070020620700206C070020E1
:106E780068070020640700206E07002072B6024AE7
:106E8800136801331360704774070020034A1368BE
:106E9800013B136003B962B6704700BF7407002056
:106EA800FFF7ECBFFFF7F2BF10B5034653E8000F3A
:106EB80040EA010243E8002494F0000FF6D110BD27
:106EC80010B5034653E8002F02EA010043E8000426
:106ED80094F0000FF6D110BD0121FFF7E5BF0021A6
:106EE800FFF7EEBF0B6801601146184710B404683D
:106EF800E468A4465DF8044B604710B4046824694C
:106F0800A4465DF8044B604770B550B90E4D0F4C60
:106F18000026641B1423B4FBF3F4B44208D1002008
:106F280010E00368002BF1D0BDE87040DB6918471A
:106F38002B6813B901361435EFE7DB692846984703
:106F48000028F7D070BD00BF1000002024000020EA
:106F5800014B43600020704790BA0700084670470D
:106F680000207047024B1868003818BF012070478E
:106F78007807002008B50248FFF7B1FF002008BDD8
:106F88007807002008B510461A4604F0CDFB00200B
:106F980008BD00002DE9F043814687B014480E462D
:106FA80015469846FFF798FF0446F0B90746BD42D4
:106FB80015D10F48FFF793FFD9F808305BB10222CB
:106FC8008DF800200022CDE90126CDE90325CDF872
:106FD800148068469847204607B0BDE8F08306EB62
:106FE800073000F013FA0137E1E71124F3E700BF97
:106FF800780700202DE9F041804686B011480F46F9
:1070080016461D46FFF768FF0446C8B9AA08314668
:10701800384600F029FA0B48FFF761FFD8F8083026
:1070280053B101228DF800200C9A0592CDE9014751
:10703800CDE9036568469847204606B0BDE8F0816B
:107048001124F9E7780700202DE9F04FC9B008AA04
:1070580001F1400514464B780E781B0443EA066399
:10706800CE7833438E78043143EA06238D4244F8C0
:10707800043BF0D11024916B16464FEAF14383EAA2
:10708800714383EA9123716A366852F8045F314488
:107098000B444FEAB54181EAF51181EAD501013483
:1070A8000B44402CD363E6D1D0E914E30093836DFD
:1070B8000193C36D0293036E0393436E0493836E2F
:1070C8000593C36E0693DDE9057BDDE9031CDDE965
:1070D80001592B4B009E079374464FF00008079BFD
:1070E80053F8042B07934FEAF12383EAB11383EA99
:1070F800716A08AB53F828301A440AEB020327EAEE
:10710800010A01EA0C028AEA02021A444FEA743AB6
:1071180086EA05035A448AEAB40A06EA050B2340BC
:1071280083EA0B038AEAB45A08F101089A44B8F1D1
:10713800400F02EB0903BB465244A94619D17244D9
:107148000265009A22444265019A32448265029A95
:107158002A44C265039A1A44049B02660B44436698
:10716800059B63448366069B3B44C36649B0BDE800
:10717800F08F674635468C46264619461446AEE7D4
:10718800BCBA070030B5E0B10F4A10490024002509
:10719800C0E91245C0E914120D4C0E4A0E4DC0E963
:1071A80016420E4AC0E918520D4A826602F174521C
:1071B800A2F523020023A2F692420364C26618468F
:1071C80030BD0E20FCE700BF85AE67BB67E6096AE5
:1071D80072F36E3C3AF54FA57F520E518C68059BB1
:1071E800ABD9831F70B5F0B1DAB900201CE00C46AA
:1071F8008D180026AC42F8D0036C14F8012BC25449
:107208000133402B0364F5D10146FFF71DFFD0E998
:10721800123213F5007342F10002C0E9123206641B
:10722800E8E70029E3D10E2070BD70B50D4616467B
:107238000446002875D0002973D0026C8021372AB3
:10724800815402F101034FF0000240D8382B39D1A4
:10725800D4E91201226C0823E3FB020103BAE363B9
:107268000B0A84F83A300B0C84F839300B0EC4E959
:10727800120184F83B1084F8383021462046FFF785
:10728800E3FE691E76B30023E26EDA4001F8012FAF
:10729800A26EDA400A71626EDA400A72226EDA4031
:1072A8000A73E26DDA400A74A26DDA400A75626DFB
:1072B800DA400A76226DDA400833202B0A77E3D1C8
:1072C800002070BDE2540133C0E7E25401333F2B84
:1072D800FBD921462046FFF7B7FE3822002104F0EB
:1072E8004CFAB5E71823226DDA4001F8012F626DD8
:1072F800DA400A71A26DDA400A72E26DDA400A7366
:10730800226EDA400A74626EDA400A75A26EDA40BA
:107318000A76E26EDA40083B13F1080F0A77E2D1E9
:10732800CEE70E20CDE7000038B5074C051E04F166
:10733800080318BF1C4623682BB11A6822605B68D3
:1073480028469847F7E738BD8407002020B9054B41
:1073580001225A70FFF7E8BF012802D1014A907054
:10736800F8E770477C07002038B50C4C23789BB9A8
:107378000B486360A3602361E36000F0BDF9054634
:1073880000F0C6F901232370064BD3F800340BB183
:107398000123A370284638BD8525F5E77C07002022
:1073A800557307000000014038B5134CA378054613
:1073B80003F0FF0073B115B16B68012098470020F6
:1073C800FFF76EFDE3680133E3600020BDE8384055
:1073D800FFF768BDFFF764FD25B1226913463BB985
:1073E8002A602561E368002BECD100F0A3F9E9E7F6
:1073F8009D42F7D01B68F2E77C070020024AD2F8CA
:107408000034002BFBD0704700E001400A4908B562
:107418000223C1F80435BFF36F8FBFF34F8FC1F854
:107428000805FFF7EBFF0023C1F80435BFF36F8FA2
:10743800BFF34F8F08BD00BF00E0014010B5094CF5
:107448000123C4F80435BFF36F8FBFF34F8F01607A
:10745800FFF7D4FF0023C4F80435BFF36F8FBFF3E1
:107468004F8F10BD00E001400E4B10B50124C3F84A
:107478000445BFF36F8FBFF34F8F01EB8204401AAF
:10748800A14208D1074B0022C3F80425BFF36F8F30
:10749800BFF34F8F10BD431851F8042B1A60FFF744
:1074A800ADFFEDE700E001400023435082B04358B0
:1074B8000193019B02B07047F0B51A4C437944F828
:1074C8002320194C03EB4303E35C43BB90F90450BE
:1074D8008B7802795B01002DDBB21BDB134E771929
:1074E80087F8003301236D0902F01F0203FA02F244
:1074F80046F8252003680A88C3F8082543790879DF
:10750800C97803EB4303E218507091700122E254EA
:107518000020F0BD064D02F00F02AB54EAE7082048
:10752800F7E700BF940700209007002000E100E083
:1075380014ED00E0036801221A604379024A03EB64
:1075480043030221D15470479007002008B5006812
:107558004FF480338B40C0F84833D0F804231342EB
:1075680001D1002008BD5031890089B2C0F8083324
:107578004358002BF5D0FFF797FF0D20F2E70000E6
:107588002DE9F04105464FF4803400681C4E8C40CC
:10759800C0F84843C0F8084395F805C00CEB4C0701
:1075A800374422F07F4297F8018001F5A8774FEA27
:1075B8004C0E40F82720B8F1000F11D0D0F8048500
:1075C800F4446644A8EB0207424588BF07F1FF1759
:1075D800B27888BF07F57F47974201DA0D200CE0A3
:1075E8003BB15031890089B2FFF75EFF2B68C3F8C1
:1075F80004432B680020C3F84443BDE8F08100BF72
:1076080090070020024610B500680C464FF48271BE
:10761800FFF74AFF13680222C3F844230CB1C3F8EA
:10762800042310BD437903EB4302044B13446FF06A
:107638007F405A780AB19B78C01A7047900700209B
:107648002DE9F047244EDFF89880DFF89090002469
:107658004FF480353746D6F80433A8F580512B42CD
:1076680089B20DD0D8F8003053B1C6F84853304627
:10767800C6F80853FFF718FFD9F80030E0B298476A
:107688000134042C4FEA450508F10408E3D1D7F882
:107698000433DA070BD5D7F8003143B10E484FF45D
:1076A8008071FFF701FF0D4B20461B689847D7F8FC
:1076B80004339B070DD5D7F8043153B106484FF46E
:1076C8008271FFF7F1FE054BBDE8F0471B68052006
:1076D8001847BDE8F08700BF00100140940700205C
:1076E8004011014000F18040002382B0036003682C
:1076F8000193019B02B07047044A137923B9012111
:1077080010609180184670478520704798070020C0
:10771800074B1A68D20704D4C02283F80023012239
:107728001A604FF080430122C3F81825704700BF44
:1077380000E100E038B54FF48270FFF7D3FF4FF057
:1077480080430222C3F804230A4AD06840F08073B9
:10775800D360094B1C6844F0010119605D685968E1
:10776800491BB1F50A5FFAD31C60044BD0600122B3
:107778001A6038BDF0ED00E0001000E0080000409D
:10778800124B1B6810B573B14FF48070FFF7AAFF56
:107798004FF080430122C3F808230D4B587910B9E4
:1077A8005A711B6898470B4B1B6873B14FF4827072
:1077B800FFF798FF4FF080430222C3F80823044BD9
:1077C800BDE810401B680120184710BD00010040AB
:1077D800980700200401004000F1804000F5E040D7
:1077E800002382B0036003680193019B02B07047D5
:1077F800F0B5504B504C1B6885B0002B3DD04FF472
:10780800827094F82E20FFF7E7FF2AB394F82F3000
:1078180013BB4A4B1B68002B33D04FF48070FFF723
:10782800DBFF638B94F82D108B424FD922895B1AAA
:107838009BB292B26383D31A626802EB4303404A55
:10784800C2F82C36C2F830164FF48270FFF7C4FF26
:107858003C4B01221A6014E0636802932389ADF857
:107868000C30E36800218DF8041023BB23742368CF
:1078780001A89847002384F82F3094F82E30002B65
:10788800C7D1314B1B685BB14FF48870FFF7A4FF79
:107898000023237402238DF8043001A82368984735
:1078A8002A4B1B68EBB14FF48A70FFF795FF002352
:1078B800237405B0F0BD208B608363602081E16094
:1078C800002AD4D11E4B01221A60D0E7BCD1E3684C
:1078D800012284F82F2013B100226283AFE763836B
:1078E800B2E766694FF000470125002EE1D0B6FAED
:1078F80086F227FA02F34632920026EA030602F1DC
:10790800804303F5E0431B68002BEED01046FFF7D9
:1079180063FFA2F58C72D30882F00402C2F38002DE
:107928008DF808308DF8045023688DF8092001A8D7
:107938009847DAE704710040A00700200071004072
:107948000070004004700040107100401471004045
:1079580038B5204A92F82C300446002B37D11160F4
:107968001D490078C1F8F0056078C1F8F4050125D3
:10797800137482F82D30536182F82F30E07882F842
:107988002E006FF0004382F82C504FF48270C1F83B
:107998000833FFF721FF4FF48070FFF71DFF4FF406
:1079A8008A70FFF719FFA3780C485B01DBB280F8F7
:1079B8000733802303600223C1F8043392F82E3082
:1079C8000BB1C1F80453C1F80055002038BD082098
:1079D800FCE700BFA00700200070004000E100E0C5
:1079E80070B52A4B1A7C02F0FF05002A4BD10A79A0
:1079F800012A9CBF264CC4F8005500F10C0503EB86
:107A08004504247924B993F82D40013483F82D4096
:107A180003EB4503CC790D7A8E781C715D714B7838
:107A280036021B0106F4E06603F0300333430E7898
:107A380006F003063343CE78360306F48056334304
:107A4800160406F4E02633434E798979360506F4A0
:107A580080160906334301F080710B430C4901EB92
:107A68000016000100F1804000F5E040012AC6F848
:107A78001835C0F81455C0F8104502D80123C1F8CC
:107A88000035002000E0112070BD00BFA0070020D5
:107A98000070004070B5264A264B05461220C2F8F1
:107AA80008031C7C022C03D1C2F80403112070BD0A
:107AB800187C01281DD1D86818B10223C2F80433F4
:107AC800F4E7DD60198393F82E3063B91A4A136816
:107AD800002BFCD04FF48070FFF77EFE144BC3F8E8
:107AE8002C56C3F83016124B0222C3F80423002088
:107AF800DDE7022093F82E40C2F804030126002097
:107B08001E745D601981D8603CB1598393F82D309B
:107B1800C2F82C56C2F83036C9E7C2F82C564FF4D2
:107B28008070C2F83016FFF757FE20461660BEE791
:107B380000700040A007002000710040084A117C36
:107B48000129CBB209D192F82E0018B1054A0020BC
:107B580013607047044A136070470820704700BFDD
:107B6800A00700200070004004700040F0B51B4FD3
:107B78008BB207EB001443EA0243C4F81C35184BD8
:107B880040005C6900F1010C4FF0004611F5006FF0
:107B980026FA0CF64FF0800505FA00F50BBFB44342
:107BA80034435C615C610CBFC7F80853C7F80453E1
:107BB80040244FF000455969844025FA00F040F20E
:107BC800FF75AA42054A0BBF8143014359615961B8
:107BD8000CBFC2F80843C2F80443F0BD007000406F
:107BE800A007002010B5124B1A7CF2B900F10C0165
:107BF80003EB4102127922B193F82D20013A83F860
:107C08002D2003EB410300249C80030103F18043F2
:107C180003F5E0430749C3F8144540F2FF72C3F87F
:107C28001045FFF7A3FF204610BD1120FCE700BF59
:107C3800A007002000F8FFFF38B5154B6FF0004291
:107C4800C3F80823134A8021C2F88010BFF34F8F6E
:107C5800BFF36F8F104A01211160104942F2107270
:107C6800086808B9013AFBD10D4D0024C3F8004556
:107C78002C7405EB44031B7F13B1E0B2FFF7B2FF8E
:107C88000134082CF5D1002385F82C3038BD00BF0D
:107C98000070004000E100E00870004014710040EE
:107CA800A007002028B139B10023C1E900301846E7
:107CB800704748F21050704748F21350704738B177
:107CC800006848F24053884214BF184600207047A5
:107CD80048F21050704730B148F21153914214BF26
:107CE80018460020704748F21050704770B5064695
:107CF8000C461D46FFF7D6FF50B9B3794AB1AB42DF
:107D08000AD111462046FEF7D2FF08B9044B23607A
:107D180070BD48F21050FBE748F21150F8E700BF79
:107D28007052464D2DE9F0470C4606460F4920464D
:107D3800DDE9088915461F46FFF7C1FFA0B963684A
:107D48005A79494652004046FFF7C5FF60B94DB120
:107D5800CDF820803B462A4621463046BDE8F0470C
:107D6800FEF7ADBF48F21050BDE8F0877052464D9F
:107D780010B5044638B149B10B684160984708B955
:107D8800044B236010BD48F20150FBE748F2105045
:107D9800F8E700BF6E524648F0B4134648B107688A
:107DA800094EB7420AD161B12AB14368F0BC5B6899
:107DB800184748F201531846F0BC704748F202537E
:107DC800F9E748F21053F6E76E524648F0B460B14E
:107DD80007680C4EB7420CD171B143681568DC686E
:107DE800A5420CD3F0BC9B68184748F20150F0BC80
:107DF800704748F20250FAE748F21350F7E748F2A2
:107E08001450F4E76E524648F7B50446DDE90867B2
:107E180015460193FFF7ACFF68B9019A2946204639
:107E2800FFF7BAFF38B93A463146204603B0BDE8F5
:107E3800F040FFF7CBBF03B0F0BD0000F8B50A4F24
:107E48000A4C0B4DE41B0121E40829700026A642C8
:107E580003D102232B700020F8BD57F8363098471D
:107E68000028F9D10136F2E7E8B70700E8B70700BC
:107E7800D007002001390144814200D270470378BD
:107E88000A7800F8012B01F80139F5E7013A0244B4
:107E98000139824200D2704711F8013F02F80139D6
:107EA800F7E770B516460D46FFF7F0FF3246A919F9
:107EB8003044BDE87040FFF7E9BF38B50D460446C9
:107EC800FFF7D8FF29466019BDE83840FFF7D2BF51
:107ED8008B1802448B4200D1704713F8010D02F849
:107EE800010DF7E700000000C3F10803DB0070B5DF
:107EF80001330446002003A55B1920C940CAAD1907
:107F080020C4184720C940CA754120C420C940CAA6
:107F1800754120C420C940CA754120C420C940CA3F
:107F2800754120C420C940CA754120C420C940CA2F
:107F3800754120C420C940CA754120C4404170BD64
:107F48000000000000000000C3F10803DB0070B56A
:107F58000133002403A500BF5B1920C940CAAD1B2B
:107F680020C0184720C940CAB54120C020C940CA0E
:107F7800B54120C020C940CAB54120C020C940CA67
:107F8800B54120C020C940CAB54120C020C940CA57
:107F9800B54120C020C940CAB54120C06441B4FAE7
:107FA80084F0400970BD00BF2DE9F04F08B4F8CA4D
:107FB80004B451F8042BA3FB028940F8048B4FF05A
:107FC800000AE4FB629A4FF0000BE5FB62AB4FF04E
:107FD800000CE6FB62BC4FF0000EE7FB62CE51F8E6
:107FE800042B4FF00008E3FB628940F8048BE4FBA4
:107FF800629AE5FB62ABE6FB62BCE7FB62CE51F836
:10800800042B4FF00008E3FB628940F8048BE4FB83
:10801800629AE5FB62ABE6FB62BCE7FB62CE51F815
:10802800042B4FF00008E3FB628940F8048BE4FB63
:10803800629AE5FB62ABE6FB62BCE7FB62CE51F8F5
:10804800042B4FF00008E3FB628940F8048BE4FB43
:10805800629AE5FB62ABE6FB62BCE7FB62CE40F8E6
:10806800049B40F804AB40F804BB40F804CB40F84C
:1080780004EB0CBC052B00F01E810C68A0F1140069
:10808800A1F11401A2F1140252F804EB4FF000051B
:1080980050F8046BE4FB6E5652F804EB50F8047B7E
:1080A800E4FB6E6752F804EB50F8048BE4FB6E783F
:1080B80052F804EB50F8049BE4FB6E8952F804EB89
:1080C80050F804ABE4FB6E9AA0F1140052F8044B8C
:1080D80051F804EB4FF0000CE4FB6EC540F804CBFC
:1080E80051F804EBE4FB6E5640F8045B51F804EBDE
:1080F800E4FB6E6740F8046B51F804EBE4FB6E7820
:1081080040F8047B51F804EBE4FB6E8940F8048BDB
:1081180051F804EBE4FB6E9AA0E80006062B00F089
:10812800CA800C68A0F11800A1F11801A2F1180288
:1081380052F804EB4FF0000550F8046BE4FB6E5660
:1081480052F804EB50F8047BE4FB6E6752F804EB3A
:1081580050F8048BE4FB6E7852F804EB50F8049B5B
:10816800E4FB6E8952F804EB50F804ABE4FB6E9A1A
:1081780052F804EB50F804BBE4FB6EABA0F1180016
:1081880052F8044B51F804EB4FF0000CE4FB6EC5B9
:1081980040F804CB51F804EBE4FB6E5640F8045B5E
:1081A80051F804EBE4FB6E6740F8046B51F804EBFC
:1081B800E4FB6E7840F8047B51F804EBE4FB6E892D
:1081C80040F8048B51F804EBE4FB6E9A40F8049BEA
:1081D80051F804EBE4FB6EABA0E8000C072B6AD067
:1081E80008B40C68A0F11C00A1F11C01A2F11C024A
:1081F80052F804EB4FF0000550F8046BE4FB6E56A0
:1082080052F804EB50F8047BE4FB6E6752F804EB79
:1082180050F8048BE4FB6E7852F804EB50F8049B9A
:10822800E4FB6E8952F804EB50F804ABE4FB6E9A59
:1082380052F804EB50F804BBE4FB6EAB52F804EBC5
:1082480050F804CBE4FB6EBCA0F11C0052F8044BC0
:1082580051F804EB4FF00003E4FB6E3540F8043BA3
:1082680051F804EBE4FB6E5640F8045B51F804EB5C
:10827800E4FB6E6740F8046B51F804EBE4FB6E789E
:1082880040F8047B51F804EBE4FB6E8940F8048B5A
:1082980051F804EBE4FB6E9A40F8049B51F804EBA8
:1082A800E4FB6EAB40F804AB51F804EBE4FB6EBCA6
:1082B800A0E8001808BCBDE8F08F002310B51C46E4
:1082C8005AB2914200DC10BD40F823400133F7E771
:1082D80010B500231A465CB2A14203DCB2FA82F060
:1082E800400910BD50F8234001332243F3E74A11F7
:1082F800012350F8220001F01F0103FA01F10840A0
:108308007047013910B549B2041D0A06CBB204D42E
:10831800013954F82120002AF7D001335BB273B138
:1083280003F18042013A50F82220002022B9013B93
:1083380000EB431318B210BD52080130F6E7184697
:10834800F9E710B500235CB2A24200DC10BD51F879
:10835800234040F823400133F5E710B5013A52B203
:10836800130601D5002010BD50F8224051F82230E4
:108378009C4205D802F1FF32F2D24FF0FF30F2E70B
:108388000120F0E700EB81010023884200D3704709
:1083980051F8042D43EA52030B60D307F5E737B5CC
:1083A8001D469DF9183001930446FFF79DFD019B7A
:1083B80038B91A4621462846FFF7CFFF0128019B06
:1083C80007D02A462146204603B0BDE83040FFF7D3
:1083D800BBBD03B030BD37B51D469DF918300193BC
:1083E8000446FFF7B1FD019B38B12A4621462046D5
:1083F80003B0BDE83040FFF777BD03B030BD2DE9CD
:10840800F04FB5B004AC9DF9F8501E4680462B4697
:108418002046FFF7C9FD24AB29463046CDE9023492
:10842800FFF76FFFC0EB851004B2002C2146B8BFE0
:1084380004F11F01634241F3471103F01F0314A81D
:1084480004F01F0758BF5F42FFF737FF002F08B23D
:108458002BDD14AB002203EB8001C7F1200E13467D
:10846800AB4217D36B00019314AB03EB85096F1E66
:1084780034AB012603EB8707002C54DA34AB03EB4B
:1084880086062A4656F8C81C4046FFF75AFF35B0FC
:10849800BDE8F08F56F823C00CFA07F0024341F804
:1084A800042B01332CFA0EF2DAE714AB2A463146D4
:1084B80003EB8000FFF745FFD4E70FFA82FE5AF876
:1084C800C83C53F82EB034AB03EB8202013052F8AB
:1084D800803C0B44BBEB030334BF012200229B45C5
:1084E80018BF11465CF8C82C42F82E30019B42B2E6
:1084F8009A42E2DB731A5E42294614A85E41FFF7EE
:1085080041FF34AB03EB8503294653F8802C57F819
:10851800803C484643EAC273013C47F8803C24B299
:10852800FFF730FFA8E734AB0020C6F1010C014685
:1085380003EB860A03EB8C0CD8E730B51C4691B0E8
:10854800054693F900306846FFF72EFDD4F8AC30A5
:1085580069462846984711B030BD13460A46FFF7CA
:10856800ECBF2DE9F04793F9006092B004468946C4
:108578001046314615461F46FFF7AAFE002840F070
:1085880091803A46494602A8FFF7E7FF3B4602AA10
:1085980021460AA8FFF7D1FF02A908463A46FFF785
:1085A800DCFF3B462A4649464846FFF7C6FF07F127
:1085B80004083A4629462846FFF7CFFF43462A468D
:1085C800214620460096FFF7EAFE43462A462946FA
:1085D80028460096FFF7E3FE43462A4621462846EA
:1085E8000096FFF7F8FE3B462A4621462046FFF74D
:1085F800A4FF43462246214628460096FFF7CFFEB1
:10860800434600962A4621462046FFF7C8FE2368BF
:10861800DB074AD53346424621462046FFF764FC2D
:10862800314682462046FFF7ADFE06F18043013B06
:1086380054F8232042EACA7244F823203A462146D5
:108648002846FFF78AFF43460AAA29462846009685
:10865800FFF7C1FE43460AAA294628460096FFF7B7
:10866800BAFE0AA9084643462A460096FFF7B3FE13
:108678003B460AAA21462046FFF75FFF02AA434667
:10868800104621460096FFF7A6FE324629462046A8
:10869800FFF757FE49462846FFF753FE02A948460A
:1086A800FFF74FFE12B0BDE8F08731462046FFF7CE
:1086B80069FEC3E72DE9F04115468AB004460E4627
:1086C8001C22002103A803F058F82F1D95F90080FB
:1086D80003232A46314620460293FFF73EFF3B46D6
:1086E80002AA21462046CDF80080FFF774FE2B46EB
:1086F800324621462046FFF720FFCDF800803B4652
:1087080005F1840221462046FFF749FE0AB0BDE87C
:10871800F08100002DE9F042082288B00C4681461D
:10872800FFF70FFECB6A03930B6B04934B6B059318
:108738008B6B0693CB6B0793002708236A46694621
:108748006846CDE901770097FFF7CEFB0823054679
:108758006A4649464846FFF7C7FB236B0393636B9A
:108768000493A36B0593E36B0544CDE906376A468A
:10877800082369466846FFF7B7FB082305446A469D
:1087880049464846FFF7B0FB236A0093636A0193A2
:10879800A36A0293A36B0693E36B0793054408232C
:1087A8006A4649464846CDE904770397FFF79CFB9C
:1087B800636A0093A36AA26B0193E36A029304922B
:1087C800636BE26B0393CDE90523236A07932E18A5
:1087D80008236A4649464846FFF786FBE36A009342
:1087E800236B0193636B0293236A0693A36A07932F
:1087F800351808236A4649464846CDE90477039761
:10880800FFF7A2FB236B0093636B0193A36B0293A7
:10881800E36B0393636A0693E36A07932E1A0823AC
:108828006A4649464846CDE90477FFF78DFB636BF6
:108838000093A36B0193E36B0293236A0393636A28
:108848000493A36ACDE90537236B0793361A0823E7
:108858006A4649464846FFF777FBA36B0093E36BEC
:10886800CDE90137636A0393A36A0493E36ACDE908
:108878000537636B0793361A08236A464946484604
:10888800FFF762FB361A0E4C0FD436B90822494658
:108898002046FFF762FD01280FD0082322464946EB
:1088A8004846FFF751FB361AEFE7082322464946A8
:1088B8004846FFF719FB3618F7D408B0BDE8F08230
:1088C800C0BB070070B514468AB006460D461A4666
:1088D800214602A80193FFF740FE019B02AA3146F8
:1088E8003046FFF72AFE02A9019B22460846FFF7F9
:1088F80024FE019B02AA29462846FFF71EFE0AB05D
:1089080070BD2DE9F0478AB01446DDF848A05546F9
:108918001F4615F9046B0096804689462B46024689
:10892800214602A8FFF757FD02A952460846FFF75D
:1089380014FE534602AA41464046FFF7FEFD534641
:1089480002AA21462046FFF7F8FD2B464A4639463B
:1089580038460096FFF73FFD5246394602A8FFF712
:10896800FCFD02A92B46424608460096FFF733FD58
:1089780002A92B46224608460096FFF72CFD2B46F7
:108988004246214620460096FFF725FD53462246DB
:1089980049464846FFF7D1FD2B4602AA41462046E4
:1089A8000096FFF718FD5346224639463846FFF72A
:1089B800C4FD2B464A46394638460096FFF70BFD5C
:1089C800324602A92046FFF7BCFC0AB0BDE8F08792
:1089D8002DE9F0479846B3F90230894613F11F0193
:1089E80048BF03F13E01DD1D48BF03F10E05EC1041
:1089F8004E11944275B228BF144629460746FFF720
:108A08005CFC22464946FFF763FAB8F90230B3EB3B
:108A1800C40F4FEAC40220D2D21A07EB8601002005
:108A2800C2F120068F420FD308F124082A4639469E
:108A38004046FFF792FC01280FD02B4642463846A5
:108A4800BDE8F047FFF780BA51F8044D24FA02F365
:108A580003430B6004FA06F0E4E7BDE8F08770B55D
:108A6800036813F001060546144605D013460A4666
:108A78000146FFF739FA064621462846FFF782FCE9
:108A880046B104F18042013A55F8223043F00043E0
:108A980045F8223070BDF0B50F46A1B0064619461C
:108AA800384615461C46FFF713FC20B13046FFF741
:108AB80004FC21B0F0BD224639466846FFF741FC68
:108AC800294608A8FFF73DFC10A82146FFF7F5FB4B
:108AD800012318A81093FFF7F0FB224608A968465F
:108AE800FFF73BFC28B9224610A93046FFF729FCBE
:108AF800DFE7009BDA0709D421466846FFF742FC06
:108B08002246294610A8FFF7AAFFE6E7089BDB07DD
:108B180007D4214608A8FFF735FC2246294618A89D
:108B2800F1E7002823461CDD08AA69466846FFF7D6
:108B38000BFA21466846FFF725FC224618A910A81B
:108B4800FFF70BFC002805DA10A923462A46084639
:108B5800FFF7CAF910A9234618AA0846FFF7F4F93F
:108B6800CEE708A96A460846FFF7EEF9214608A8A5
:108B7800FFF708FC224610A918A8FFF7EEFB00280B
:108B880005DA18A923462A460846FFF7ADF918A9B9
:108B9800234610AA0846FFF7D7F9BEE700487047F2
:108BA800BCBB07002DE9F04F2DED028BEDB08946D7
:108BB800789E05901946B6F9023096F9004013F1EF
:108BC8001F0748BF03F13E0747F3471707F1FF3B6D
:108BD80024AB002543F82B506CAB03EB8B0307EE5B
:108BE800902A4CA896F9012043F8805C43F8605C11
:108BF800FFF76EF996F9012054A81144FFF768F9B8
:108C080021464CA8FFF764FB8046002840F04281CB
:108C180054A8FFF75DFB0390002840F03D8106F162
:108C2800240A3A464CA95046FFF797FB012840F022
:108C380035813A4654A95046FFF78FFB0128069024
:108C480040F02C811CAD3B46524654A92846FFF7FC
:108C580022FF0DF13008039B48F82B3017EE902ABD
:108C6800494640463346FFF7B3FE41464046534621
:108C78002A460097FFF7C3FB0DF5B87B53462A46F3
:108C88004CA914A80097FFF7BAFB22465846059945
:108C9800FFF757FBA3000793059B0BEB840903EB36
:108CA80084014846FFF74DFB06F14403194634A8F2
:108CB8000493FFF746FB049BA10059183CA8FFF753
:108CC80040FB331D08EE903A594634AA28460094D2
:108CD800FFF781FB4B465A463CA934A80096FFF79C
:108CE80010FE18EE902A234629462846FFF7D3FEA1
:108CF8002A46494658463346FFF7E4FD039B089346
:108D0800049B0993059B39464046CDE90A3BFFF78A
:108D1800F8FA3946834614A8FFF7F3FA5845B8BF5E
:108D280058461FFA80FB0BF1FF3109B24046049107
:108D3800FFF7DDFA0499B0F1000814A818BF4FF046
:108D48000108FFF7D4FA002814BF0220002048EADF
:108D580000080DF12009224659F8281024A8FFF729
:108D6800F0FA0DF1B009A30019444846FFF7E9FAF3
:108D780021462846FFF7A1FA069B2B60ABF10208B3
:108D880024AB08EE105A0FFA88F80493B8F1000FD4
:108D98002ADA18EE902A18EE101A18EE100A23464E
:108DA800FFF779FE18EE102A049833464946FFF774
:108DB80089FD04993A465046FFF7CFFA012805D0B5
:108DC80004993B4652460846FFF7BEF8013C64B298
:108DD8004CAA230653D5039BB3FA83F040096DB020
:108DE800BDEC028BBDE8F08F334618EE102A0498CC
:108DF800D6F8A4504946A84741460CA8FFF777FA89
:108E08004146B0F1000B14A818BF4FF0010BFFF753
:108E18006EFA002814BF022000204BEA000B08ABB2
:108E280053F82B1031B3224634A8FFF78AFA079B70
:108E38003CA81944FFF785FA18EE102A33463CA9D6
:108E480034A8FFF73FFD18EE903A0499009434AA2D
:108E580044A8FFF7C0FA049A00964B463CA934A8E8
:108E6800FFF74FFD18EE101A18EE100A334644AA01
:108E7800FFF763FB08F1FF380FFA88F886E7049BD1
:108E880052F8241053F824304B40039919430391A6
:108E9800013C9EE72846A2E74046A0E703989EE7E4
:108EA80013681F2B10B5144607D900220830FEF7A7
:108EB800BCF908B92023236010BD48F21450FBE721
:108EC8000830FEF78FB90830FEF75CB9014B012274
:108ED8001A707047F40B0020BFF34F8F0549064BFB
:108EE800CA6802F4E0621343CB60BFF34F8F00BF40
:108EF800FDE700BF00ED00E00400FA05024B03485F
:108F080000221A7001F0D0B8F40B0020E18E07009F
:108F1800042810B5044609D8022811D816D00D4BDC
:108F28001B68B3B12046BDE810401847831F012BCA
:108F3800F5D8094B094800221A7001F0B5F8EEE798
:108F480007494FF47A0000F02BFAE8E700F0E4FF55
:108F5800E5E710BDF80B0020F40B0020E18E0700B8
:108F6800058F0700002070475E4B37B5186000205A
:108F780001F0B0F8002840F0AF805B4D6B69012B21
:108F880017D101F013FB01F057FB68B101A968463E
:108F980001F080FB012807D101F054FB012803D11F
:108FA800DDE9000101F088FD002350486B6101F004
:108FB80081F800F0C5FA012800F08880022800F046
:108FC8008E80002840F088804FF08043D3F800441A
:108FD80014F4803435D04FF48032C3F800240446AA
:108FE8002B6A012B40D04FF47A0400F03FFB404A33
:108FF80020211820FDF790FE08B1FCF7ECF93D4B55
:109008001A6802F0F802B02A06D11A68D20742BFDD
:109018001A6802F04E021A60FFF7A4FF00285BD11D
:109028002046354900F0BCF9344800F0BFFC002860
:1090380052D100F041FBFDF7F1FE20BF40BF20BF39
:10904800F7E7D3F8202502F0F802A82A0AD1D3F8C6
:109058002025D10706D5D3F8202502F05602C3F8FB
:109068002025BDE70124BBE743F204031A68244B1B
:109078009A4209D001F0B0F8AA69014694B1214892
:1090880001F060FB90B9AEE76A6B1CB995F86032E5
:10909800012BEFD01C484FF4805101F053FB0028FE
:1090A800E8D1A0E795F8A132012BE8D1114B1B6854
:1090B80013F0B10F97D101F01AF868B9134B187073
:1090C8000A4800F0F1FF00F025F805E00F4B1048C2
:1090D80000221A7000F0E8FF032003B030BD4FF4FF
:1090E800A02482E7F80B002018130020D58E070073
:1090F800D40700201C050040058F0700198F0700C2
:10910800DBE5B151B915002078150020F40B0020DB
:10911800E18E070008B5074B4FF0FF32C3F88020F7
:10912800C3F8802100F09DFCBDE808404FF4805052
:1091380000F032B800E100E080F30888084770B515
:10914800C1F30B0434BBB0F5FE2F23D84B1E1B0B09
:10915800020B03EB103101264FF08040914201D2FF
:10916800204670BD02F01F03550906FA03F3032DCC
:1091780005D8DFE805F00206090CC0F80036013210
:10918800ECE7C0F80436FAE7C0F81036F7E7C0F89D
:109198001436F4E70724E3E710B504461448C0F58D
:1091A800FE21FFF7CCFF08B1FCF715F901F014F820
:1091B800104B9B6903F6FF7323F47F6323F00F03BF
:1091C80019180020FFF7BBFF08B1FCF704F9EFF30B
:1091D80005830023D4E9000183F3148883F31088FE
:1091E80083F3118883F31388BDE81040FFF7A4BF09
:1091F800005007001813002037B56FF07F42154C58
:10920800057BD4F804358A4228BF0A46891A1344D4
:109218004A1E942A23F07F4305F5A8729BBF963B0C
:1092280096314160416044F822300B4B4FF4F860AE
:1092380043F001039847094BAA00134400221A601F
:109248001B680193019B4FF48033AB40C4F804338F
:1092580003B030BD0040024090BC070040410240CE
:1092680018490A7884B0002A29D14FF08043A020F9
:10927800D3F81834DB035EBF134B01221A60134A7C
:109288000023136012680392039A114A136012684C
:109298000292029A0F4A136012680192019A0E4ACA
:1092A80082F82403102050600C4A0D48C2F8083593
:1092B8000123036002201360C2F804030B7004B09A
:1092C800704700BF000C0020080000400041024029
:1092D800404102404441024000E100E000400240B9
:1092E80008400240284B1A6813B542B127490A685A
:1092F80001320A6000221A601B680093009B244B0D
:109308001A68A2B100221A6022481B68027B0193E6
:10931800019B4FF4803393401F4AC2F808334168D9
:10932800044601BB8168D9B9236803B198471B4B30
:109338001A6832B300221A6016481B68027F01932C
:10934800019B4FF480339340134AC2F808334169B4
:10935800044659B1103002B0BDE81040FFF74CBFC9
:10936800FFF74AFFE0E7FFF747FFE0E7816911B140
:109378001030FFF741FF23691BB102B0BDE8104070
:10938800184702B010BD00BF04410240FC0B00208A
:1093980040410240A40100200040024044410240F4
:1093A80070B50B4B1D682A7B4FF480339340094AF4
:1093B8000E46C2F80833044640B1FFF751FF2E604D
:1093C80021462846BDE87040FFF716BF70BD00BFB4
:1093D800C40100200040024070B5074B1D680446D8
:1093E8000E46A860FFF73CFF2E6021462846BDE8E0
:1093F8007040FFF701BF00BFC8010020014B0122E8
:109408001A707047010C002038B50F4BDA6A5D6A94
:109418009C6CAC2A10D15B6B1C44ED1A0B482A4695
:10942800214602F04EF968B100F046F92946204677
:10943800BDE8384000F004BB002CEFD100F0E2FE9C
:109448000446EBE738BD00BF1813002000500700A2
:109458002DE9F74F06468846A8EB06052D0B02F6C0
:10946800FF77144600F002F9082D28BF08252B03C2
:10947800DFF868B001933F0B0CB9234629E0BD42E1
:109488002CBFBA46AA464FF000025146304634BFB8
:10949800DDF80490A14600F0BBFA0346C8B909F10B
:1094A800030222F003024146304600F0A3FA0346C5
:1094B80078B9DBF830304B44CBF8303000F0FAFDA7
:1094C800A7EB0A07A4EB09044E44C8440346002846
:1094D800D2D0184603B0BDE8F08F00BF18130020A3
:1094E80010B500F0A1FE154A42F20403916CCC5865
:1094F80003F1A34303F5471303F2D7539C4218D152
:10950800D2E90C32934216D0884204D1BDE810400B
:10951800002000F0CFBDD21A02F6FF7222F47F625B
:1095280022F00F0219441844FFF792FF0028EDD0EB
:1095380010BD0320FCE70020FAE700BF1813002045
:1095480070B5264CE36AAA2B37D005D8012B0BD06F
:10955800A52B2ED0002070BDAC2BFBD1FFF7C0FF90
:1095680048BBFFF751FF26E0A66C656A00F034FEA1
:10957800864229D100F030FE00222946FDF7B6F9CF
:10958800A36A984202BF0123C4E90703A561002525
:10959800134800F0F3FD134B134800221A7000F033
:1095A80089FD68B975B1236A012B14BF0120022017
:1095B800D1E7FFF795FF0125EAE7FFF725FFE6E783
:1095C8000320C8E70120C6E7236BEA1AF1181844FC
:1095D800FFF73EFF0028DAD1CCE700BF18130020C0
:1095E8003C130020010C00200594070040F6F87099
:1095F80008B50368013302D10749FDF71FFF40F69C
:10960800FC700368013305D1BDE808404FF4FC2124
:10961800FDF714BF08BD00BF005007000A4AD2F882
:1096280000347BB109480023D2F80815D940C9078E
:1096380048BF03F5C07103F1010348BF42F8210098
:10964800072BF1D1704700BF000001403546526E2C
:10965800FFF7E4BF044B002282B01A601B68019335
:10966800019B02B0704700BF0001014038B50E4CA5
:109678002278BAB90D4BD3F800248AB1D3F804552F
:10968800FFF7CCFF40F61650A842B8BF2846084955
:10969800A0F54860FFF7A0FE064B4FF480321A6031
:1096A8000123237038BD00BF020C002000000140D8
:1096B8005996070000E100E0034BD3F800340BB1E2
:1096C800FFF7ACBF704700BF00000140044B1868AB
:1096D800421C04BF034B1878831F584258417047F7
:1096E80030010010E00F00F0074B1B78062B09D162
:1096F800064B1B68C3F30313033B032B02D8044A2E
:10970800D05C704700207047E00F00F0E80F00F0D1
:109718009EBC070008B5FFF7D9FF28B1834B844AE0
:109728001B68C3F304231360FFF7DEFF10B1814BFE
:10973800814A1A60FFF7CAFF28B1804B804A1B682C
:10974800C3F342331360FFF7CFFF20B17D4AD368DC
:1097580023F08073D360FFF7B9FF40B14FF0804327
:109768000022C3F80C21C3F81021C3F83825FFF7ED
:10977800BBFF10B1744B03221A60FFF7B5FF40B16D
:10978800724B05221A6001229A6700229A603F22D2
:109798005A606F4B1A68511C0BBF6E4B6E4B1A7890
:1097A8001B6802BF08331B68C3F30313062A4DD195
:1097B800033B032B03D8694AD35C002B46D04FF0F8
:1097C8008052674BD2F80414C3F82015D2F8081455
:1097D800C3F82415D2F80C14C3F82815D2F81014BD
:1097E800C3F82C15D2F81414C3F83015D2F818148D
:1097F800C3F83415D2F81C14C3F84015D2F8201455
:10980800C3F84415D2F82414C3F84815D2F828141C
:10981800C3F84C15D2F82C14C3F85015D2F83014EC
:10982800C3F85415D2F83414C3F86015D2F83814B4
:10983800C3F86415D2F83C14C3F86815D2F840147C
:10984800C3F86C15D2F84424C3F87025FFF73EFF1F
:1098580028B1444B444A1B6803F04F031360FFF7D9
:1098680035FF48B14FF08043D3F80024D20744BFF6
:109878006FF00102C3F80024354B1B68062B0CD18E
:10988800354B1B68033B032B02D8384AD35C23B102
:10989800374A136843F480631360364AD2F8883035
:1098A80043F47003C2F88830BFF34F8FBFF36F8F54
:1098B8004FF01023D3F80022002A03DBD3F8043238
:1098C800002B2FDA2C4B0122C3F80425D3F80024EF
:1098D800002AFBD04FF010221521C2F80012D3F84D
:1098E8000024002AFBD04FF010231522C3F80422CD
:1098F800214B1A46D3F800140029FBD00021C3F8E5
:109908000415D2F80034002BFBD0BFF34F8F194950
:109918001A4BCA6802F4E0621343CB60BFF34F8F5F
:1099280000BFFDE7164B174A1A6008BD2403001054
:109938004035014074C007400DF0ADBA4402001034
:109948003C050040F0ED00E0A00500401056004046
:1099580030010010E00F00F03401001096BC070041
:1099680000C0004058020010E40E00409ABC0700F6
:109978003C17004000ED00E000E001400400FA055B
:10998800CC0100200090D003831F012B10B50446A2
:1099980002D8002000F0DAFB034B1B681BB12046FD
:1099A800BDE81040184710BD040C002008B5074B4F
:1099B80018600020FFF7E8FF054800F0AFFB20B96A
:1099C800BDE80840024800F05BBA08BD040C00205E
:1099D8009199070043690BB1C068184770470000A8
:1099E800024903480022FDF77DBA00BF9CBA070070
:1099F8001000002007B5009313460A4601460348A5
:109A0800FDF774FA03B05DF804FB00BF10000020F6
:109A180013460A4601460148FDF76FBA10000020B8
:109A2800014B18700B207047080C0020024B0022D5
:109A380018781A70704700BF080C002018DF7047AC
:109A480030B585B0054610220C466846002101F065
:109A580094FEA408684601950294FFF7EFFF05B04D
:109A680030BD30B585B0062300244FF480556846D4
:109A7800CDE90035CDE90244FFF7E0FF072802BF32
:109A88004FF0005320461D6005B030BD014B062045
:109A98001B681847140C00200A2803D90B38C0B2D9
:109AA800FFF7BEBF7047000010B5044686B000201F
:109AB800FDF72AFA014630B1164A18212046FDF76B
:109AC8004FF906B010BD1822684601F056FE04236F
:109AD800114A8DF80030114B116D1B68994211D154
:109AE8000F4B186800F0E8FF8DF80100FFF7D4FF6E
:109AF800D4E901138DF8010068469847094800F039
:109B0800D9FADEE701238DF801306846D4E901135C
:109B18009847D6E7B19A0700181300200C0C0020CC
:109B2800100C0020959A0700F0B5044687B018225B
:109B38000021684601F021FE23788DF800300122CB
:109B48008DF801200C2B00F28B81DFE813F00D005B
:109B580080000F008000800089018000770080006D
:109B680073001C002F007B008DF80420D4E901133A
:109B7800684698479DF80130012B00F06681A24B9A
:109B880005201B6860E14FF08053D3F80021019253
:109B9800D3F804210292D3F80C2192020492D3F84C
:109BA8001021920203921B690593DFE743F2040335
:109BB800964D186896492E6A227C884214BF012364
:109BC8000223012E08BF013352B902238DF8043055
:109BD800EB6802938F4B0393C3F5FC230493C5E70B
:109BE800012A14D1884212D100234FF440528DF833
:109BF80004301278142A84BF43F214031B680293BA
:109C08004FF48053039343F208031B68E6E79A4234
:109C180009D201238DF80430AB68029300F002FBEF
:109C2800AB690390DAE7FF238DF804300023CDE910
:109C38000233D3E7237C8DF8043097E7238AADF805
:109C4800043093E7704B07201B6898478EE7062B74
:109C5800714A01D0012B01D12169117011780129B4
:109C680004D0022958D0002313709BE0013B072B36
:109C78003FF67CAF01A252F823F000BFA59C070075
:109C8800759B0700159D0700E59C0700759B07005D
:109C98000F9D0700759B0700BD9C07005A4B0320CA
:109CA8001B689847606900F08FFCFFF7F5FE8DF898
:109CB80001005BE7A18A206900F09EFCFFF7ECFE3B
:109CC800524B8DF80100DA6B1B6C0293E36801922A
:109CD800002B3FF44BAF2069984747E74F4950485E
:109CE80000F0D8FCFFF7D8FE01288DF801007FF4BA
:109CF8003DAF002000F0DEF900283FF437AF0A231B
:109D08008DF8013032E74FF4007303933F4BDA6B61
:109D18001B6C0192029329E7013B072B3FF626AF04
:109D280001A252F823F000BF519D0700759B070060
:109D3800079E07002D9E0700759B0700579E07008A
:109D4800759B0700B19D070000F076FC08B9082351
:109D5800D6E762690AB90323D2E7C2F30B0333B12A
:109D68002A4B2E495B6D096813448B42F3D1B2F537
:109D7800805F01D90423C3E7244B2849586D09683B
:109D880015188D42E3D85A64DA6C9A64186518631A
:109D9800234B1B68002201211844FFF739FE0028D5
:109DA8003FF4E4AE0523ABE700F046FC0028CED034
:109DB800164DA18AD5E914329B1A6A6C0B4493425A
:109DC800C9D8174B2F6B1B68206905F148021F443F
:109DD800FCF78CFDE368A28A216906463846FFF73E
:109DE80009FE08B1E36876E7A38A2A6BAE641A44D1
:109DF8002A632A6D029613442B650193B6E6034B3A
:109E08009A6C02921B6DF8E7140C002018130020BE
:109E1800DBE5B15100500700D00100200C0C0020F8
:109E2800100C00200F4BD3E91402596C821A8A4295
:109E38008DD19A6C5865002120465964DA64FFF781
:109E480033FE094B1B680420984707B0F0BD054B4B
:109E58009A6C1B6D01934FF480530292039385E62D
:109E680002234DE718130020140C002083681BB14F
:109E7800024A1821FCF774BF07207047319B07007E
:109E880038B50546C0B10020FFF7AAFD044648B919
:109E980000F08CFB00F0D0FB30B9084B00201D60AF
:109EA800FFF7BEFD204638BD0549064800F0F2FB25
:109EB8000128F2D00324F5E70724F3E7140C002067
:109EC8000C0C0020100C00202DE9F04115464FF431
:109ED8006072064688461F4601F0F3FB28B915B99B
:109EE8000020BDE8F081A847FAE7002201213046AA
:109EF800FFF78EFD70B94FF460724146384601F0A5
:109F080013FC2B464FF4607239463046FFF772FD5A
:109F18000028E5D00320E4E72DE9F041434C23680D
:109F2800013368D000225821201DFCF7DFFCD4F84B
:109F38000080A8EB0002D2F1000848EB02083C4D73
:109F48003C4E2F683B6801336AD000225821381DE7
:109F5800FCF7CCFC3B68834250D17C68012C0AD0CA
:109F68000022C32107F51870FCF7C0FCD7F85C4243
:109F7800231A5C425C41B8F1000F41D02B492D48AF
:109F88004FF4607201F0D0FBC4B129682A4810224E
:109F9800043101F0C9FB296828481822114401F04E
:109FA800C3FB296826480422343101F0BDFB296827
:109FB8002448C72201F5177101F0B6FB7468012C1B
:109FC8002CD12149402201F2C71001F0ADFB1F49F5
:109FD8001C2201F2C71001F0A7FB1D4986F8A14217
:109FE8000023042201F2862086F8603286F8E232E5
:109FF80001F09AFB10E04FF00008A0E70024BAE750
:10A0080024B129680B484FF46072D5E709484FF42A
:10A018006072002101F0B1FB02237360BDE8F0819A
:10A02800B8F1000FF2D00024A8E700BF00F0070045
:10A03800D4010020181300201C1300203013002026
:10A048004C1300207415002074140020B414002050
:10A058003413002070B50C4C054600225821201DF1
:10A06800FCF744FC00222060C32104F51870FCF7BB
:10A078003DFC2A46C4F85C022146044B0448BDE86E
:10A088007040FFF721BF00BF18130020180C0020F4
:10A0980000F0070002460248024B0068FFF714BFB1
:10A0A800D4010020980F00200149FFF7F3BF00BF3B
:10A0B80000F0070038B505460020FFF7CBFF04463F
:10A0C80018B903492846FFF7E5FF204638BD00BF09
:10A0D8001813002010B5FFF783FC044628B9FFF7D2
:10A0E8001BFF2046FFF7E6FF00B1032010BD00204C
:10A0F8007047000010B5084C4FF40072FF2104F1BE
:10A108005C0001F03AFB2022002104F1380001F044
:10A1180034FB0023236310BD18130020F8B5094E43
:10A12800094CA41B0746E4080025A54201D10020DC
:10A13800F8BD56F83530384698470028F8D101352B
:10A14800F3E700BFE8B70700F0B70700F8B5094E16
:10A15800094CA41B0746E40800250436A54201D192
:10A168000020F8BD56F83530384698470028F8D111
:10A178000135F3E7E8B70700F0B7070008B50C2288
:10A18800002101F0FAFA024B00221A6308BD00BF51
:10A198001813002043F2040008B502680B4B9A42DA
:10A1A80012D10B4900230422FFF724FC60B9094BA4
:10A1B8001A6A43F20801012A08BF18629A690968F5
:10A1C8000A44A2F580529A6108BD00BFDBE5B1518F
:10A1D80058BE07001813002043F204031A68084BFE
:10A1E8009A4201BF43F20803186800F6FF7020F492
:10A1F8007F600CBF20F00F004FF48050704700BF05
:10A20800DBE5B15108B5FFF7E7FF054B9B6918443B
:10A2180000F6FF7020F47F6020F00F0008BD00BF3B
:10A2280018130020FFF7D8BF4FF480507047000084
:10A238002DE9F74F0193274BDFF8A0B01B6ADFF831
:10A24800A0900093054616464FF0000843F2040A12
:10A25800B8F1010F5FFA88F714D0022F1FD0FFF76B
:10A26800D1FF6EB1009B013B5C425C41A9EB000051
:10A27800A84200D3F9B1B4B1A8421CD2042025E009
:10A288003446F3E7FFF7A8FF019B33B9DAF800403B
:10A29800B4EB0B0418BF0124E8E74446E6E70124C1
:10A2A8004FF48050E2E708F10108B8F1030FCFD16D
:10A2B800A84202D2E2E7022F05D1FFF76BFF06485A
:10A2C800FFF75CFF01E0002FF9D1002003B0BDE8E3
:10A2D800F08F00BF1813002030130020DBE5B151C8
:10A2E8000020070090F8552012F0FB0F07D190F8D6
:10A2F800643023B1836ECBB10B600120704712F03C
:10A30800010303D090F8563003B1836D9207F2D55C
:10A3180090F85C20002AEED0054A006EC2F5FC22B7
:10A32800904201D80344E6E7042070470F207047A5
:10A33800005007005B68DA680D4B9A4230B508D1C7
:10A348000C490A6812B90C4A14681CB10B4B00225C
:10A358001A7030BDD0E90134181913F9015B002DCA
:10A36800A0EB0304F9DB0B601460044B0122EFE758
:10A3780034BD0700C0160020BC160020C4160020FB
:10A388002DE9FF472F49304D8A6B304C304FDFF8AD
:10A39800D490DFF8D4A06E465C31304600F064FEFD
:10A3A80096E80F0085E80F0000212A4B39704FF41A
:10A3B80047722046C9F80010CAF80010EB6001F097
:10A3C800DCF925492246284601F0E9F820B900279A
:10A3D800384604B0BDE8F0873F78002FF7D094F8EE
:10A3E8006C3194F800801BB3B8F1000FEFD194F8EA
:10A3F8007231002BEBD0DAF80020D9F80010304683
:10A4080000F032FE96E80F0085E80F004FF4B272B4
:10A41800414604F5BA7001F0B0F9104904F5BA7272
:10A42800284601F0BCF80028D1D004F5BA7406E03B
:10A43800B8F1000FCBD0A379002BC8D00834084B53
:10A448001C60C5E718130020E4190020C816002076
:10A45800C41600203DA30700E8BD070034BD07006F
:10A46800A01A0020C0160020BC16002000B591B02C
:10A47800FDF7E4FC684608492022FDF712FD6A460C
:10A48800064907484023FDF731FC064B01221A70A4
:10A4980011B05DF804FB00BFF8B90700F4190020FB
:10A4A80084BA070098160020F0B5A3B007460D46F9
:10A4B80014461E4678222023002104A8029301F0A6
:10A4C8005CF900230393194B1B780BB9FFF7CEFFF8
:10A4D8002DB337BB02AB164F01931649289B009743
:10A4E800324604A8FDF790FCE8B9402C1BD1124E67
:10A4F80022462946304601F017F920213046FDF75B
:10A50800DCFCCDE90064029B0C493A4603A8FDF740
:10A5180009FC00280CBF0120052023B0F0BD132042
:10A52800FBE71620F9E70A20F7E700BF9816002096
:10A538003C1A00206CBC07005C1A0020F4190020AB
:10A54800F0B5ABB004460D4616461F4678222023C8
:10A5580000210CA8039301F010F9114B1B780BB9DB
:10A56800FFF784FF2FB12146202204A8FDF78EFCB7
:10A5780004AC03AB0B4F01930B49009733462A46B3
:10A588000CA8FDF741FC48B920222146384601F0C5
:10A5980098F8B0FA80F040092BB0F0BD0020FBE736
:10A5A80098160020991600206CBC070008B5044BCB
:10A5B800986B08B1FFF7E4FE024B187008BD00BFA6
:10A5C800181300209C1A002010B5044658B1B0F5A5
:10A5D800007F0AD8064B00221A70FFF78BFD054B47
:10A5E80001209C6310BD0320FCE70420FAE700BFAC
:10A5F8009C1A00201813002070B50E4C0646E06B1C
:10A60800A36B42189A420D4611D85C300A46204482
:10A61800314601F089F8E36B04F140022B442946E6
:10A628003046E363FCF762F92064012070BD032023
:10A63800FCE700BF18130020014B1878704700BFD3
:10A648009C1A002013B5104C94F86C21B2B194F800
:10A65800D802B4F8DA2204F5377104F5B8740B4B54
:10A668001B6800930A4B1B68FFF71EFF012809D1DE
:10A67800201D02B0BDE8104000F022BA1146104675
:10A688000434ECE702B010BDC8160020BC16002048
:10A69800C0160020264BD3E90E329A422DE9F0412C
:10A6A80006460D463FD1234F97F80080B8F1000FBA
:10A6B80009D0FFF7A7FD204B306029461868BDE890
:10A6C800F041FFF70FBEFFF75BFE70B3FFF7BAFF6D
:10A6D8000128C6F800800446C5F8008020D1164B32
:10A6E800D3F8008029464046FFF7FCFD01280446C0
:10A6F80016D1B8F81030286823B1D8F81430003BC8
:10A7080018BF012300221146FFF792FD38B9FFF761
:10A7180079FD012330603B702046BDE8F0810424B8
:10A72800FFF7E8FCF8E70824F6E70524F4E700BF9C
:10A73800181300209C1A0020A01A00200123723050
:10A74800FFF7FEBE13B50446084623781146032BCF
:10A7580003D8DFE803F021050F18002002B010BD70
:10A768000022D4F80140FCF7C1F8844214BF00204D
:10A778000120F3E70A4600230146601C02B0BDE849
:10A788001040FFF7DDBE009103464022611C002007
:10A79800FFF78AFE0128E9E70120DFE72DE9F0430A
:10A7A800A3B004460D461746002178221E4604A889
:10A7B80020239DF8AC900393DDF8A88000F0DDFF1E
:10A7C80041220021204600F0D8FFB5F89430BB4262
:10A7D80082BF442303FB075393F8969084F80090B4
:10A7E800B9F1030F1ED8DFE809F00902111F002292
:10A7F80041463046FCF77AF8C4F801004246314633
:10A808002046FFF79FFF23B0BDE8F08303AB019319
:10A81800631C00930B494346324604A8FDF7F4FA3B
:10A828000028EBD00020EEE7442000FB07F2AB182D
:10A8380002F19A012944B3F89820601C00F074FFD3
:10A84800DCE700BF6CBC07002DE9F047914B1D68A1
:10A85800A4B004460F4690460A4601462846FFF72C
:10A868006DFF002800F0108195F85560002E36D154
:10A878004FF00109CDE9007923463246294613A84D
:10A88800FFF78CFF60B9B8F1000F00F0F6800525DE
:10A898008148FFF773FCFFF72DFC804B9C64EFE0C9
:10A8A800B8F1000F70D041227D4813A900F03CFF99
:10A8B8007A4B2A8A1E62C3F82C901E460AB16B692D
:10A8C8000BB9FFF767FC6B68B36000223946204676
:10A8D800FCF70CF8714B0125C3E90970DBE741224D
:10A8E800002102A800F049FF06F0010A41220021D8
:10A8F80013A8D14600F041FFBAF1000F48D042F248
:10A908000403E05803F1A34303F5471303F2D753B5
:10A9180098424AD1AA6D02F5FF5302F6FF71C1F3BE
:10A928000B011F335B1A42F20801615899423CD36C
:10A9380043F204031B68834213D14FF440531B783E
:10A94800102B8ABF43F210030021196804F5005345
:10A958001B78102B8ABF42F210030023E358994258
:10A9680023D10123CDE9002329462346002202A84A
:10A97800FFF714FFC8B1AA6DA318BA1A16F0020699
:10A9880009D1B8F1000F1FD1444B01255D6177E073
:10A998003A462346F2E70021CDE9002113A84A46AA
:10A9A8002946FFF7FBFE0028EBD1B8F1000F64D071
:10A9B800BAF1000F3FF46BAFFFF736FCA0427FF40B
:10A9C80066AFFFF7E7FB62E7DFF8D080B9F1000F69
:10A9D8004FD043F20403334A1968914247D042F2F8
:10A9E8000403E358981A43424341914221D142F269
:10A9F8000402A2588A421CD14FF440531B78142BEE
:10AA080081BF43F21403284A1B68B3FBF2F304F531
:10AA1800005298BF00231278142A89BF42F2140208
:10AA28000022A258204988BFB2FBF1F29B1A18BF36
:10AA3800012313B11D48FFF7A1FB1D48412202A9BC
:10AA480000F072FE002E14BFAC23A523C8F82C30EA
:10AA5800AB6DC8F83430002E3FF437AF15484122AB
:10AA680013A900F061FE6B68C8F80C302DE70023CD
:10AA7800BBE7AA23C8F82C30EDE70525FFF73AFB1A
:10AA8800284624B0BDE8F0871725B8F1000F7FF4F9
:10AA9800FFAEF3E7A01A00203C1300201813002093
:10AAA800B9150020DBE5B15140420F0030130020FA
:10AAB80078150020FA1500200122FFF7C5BE000016
:10AAC80090F85420F0B50346002A61D090F855005C
