:1010000000000120751300005D1300005F13000055
:10101000611300006313000065130000000000006E
:101020000000000000000000000000006713000046
:1010300069130000000000006B1300006D13000036
:10104000F1540000592200006F1300006F130000DC
:101050006F1300006F130000D950000035560000D8
:10106000C95500006F1300006F1300006F130000DC
:101070006F1300006F1300006F1300006F13000068
:101080006F130000B15300006F1300006F130000D6
:101090006F1300006F1300006F1300006F13000048
:1010A0006F1300006F1300006F1300006F13000038
:1010B0006F1300006F13000000000000000000002C
:1010C0006F1300006F1300006F1300006F13000018
:1010D0006F1300006F1300006F130000000000008A
:1010E0000000000000000000000000000000000000
:1010F00000000000000000000000000000000000F0
:1011000000000000000000000000000000000000DF
:1011100000000000000000000000000000000000CF
:1011200000000000000000000000000000000000BF
:1011300000000000000000000000000000000000AF
:10114000000000000000000000000000000000009F
:10115000000000000000000000000000000000008F
:10116000000000000000000000000000000000007F
:10117000000000000000000000000000000000006F
:10118000000000000000000000000000000000005F
:10119000000000000000000000000000000000004F
:1011A000000000000000000000000000000000003F
:1011B000000000000000000000000000000000002F
:1011C000000000000000000000000000000000001F
:1011D000000000000000000000000000000000000F
:1011E00000000000000000000000000000000000FF
:1011F00000000000000000000000000000000000EF
:10120000354936480A1A02D0072291438D4634499F
:1012100034480A1A06D00722914381F30988022232
:1012200082F3148830483149314A00F044F831489B
:101230003149324A00F03FF831483249324A00F031
:101240003AF832483249334A00F035F832483349E7
:10125000334A00F030F833483349344A00F02BF871
:1012600033483449344A00F026F8344834490022DF
:1012700000F02CF833483449002200F027F83348B6
:101280003349091A082902DB002202604160314A11
:1012900090471F481F49884205D00268043003B4B4
:1012A000904703BCF7E700208646EC46002000216B
:1012B000294A9047FEE7884207D0521A05D00378A2
:1012C00001300B700131013AF9D17047884202D0E8
:1012D00002700130FAE770470000012000F00020A2
:1012E0000000012000000120746C00003800002084
:1012F000C0000020D0130000D01300008A5D000061
:10130000746C00003800002038000020B45D00003C
:10131000B45D0000B45D0000B45D0000B45D000089
:10132000B45D0000B45D0000B45D0000746C0000AA
:10133000FC6C0000C0000020C0000020C0000020A5
:101340006497002064970020649700206497002031
:10135000649B00209D130000B13E0000FEE7FEE705
:10136000FEE7FEE7FEE7FEE7FEE7FEE7FEE7FEE755
:1013700000F002B8FFF7FCBF0F484FF007018843A9
:1013800085460E4880470E48016841F470010160AF
:10139000BFF34F8FBFF36F8FFFF732BF09480A4982
:1013A0000A4A884207D0521A05D0037801300B70E0
:1013B0000131013AF9D1704700000120F9590000CC
:1013C00088ED00E08C5D0000100000203800002057
:1013D000024BA3F82F10A3F831007047380000200B
:1013E00010B5074C207801F0DDF8FF23237000F0E2
:1013F00065FB01F0FDF9034B04221A7010BD00BF1C
:10140000820000200884002038B5114D114CA0B98D
:10141000114801F01DFA04232B70D5F80D3023611B
:10142000B4F82D300133A4F82D3002F047F801F064
:1014300015FCBDE8384001F005BC084801F008FA89
:1014400005232B70002323746374A374E374ECE707
:101450006A83002038000020B45D0000CA5D0000EF
:1014600010B5054C207801F09DF8FF232370BDE8EE
:10147000104001F033B900BF8200002010B5054CC8
:10148000207801F08FF8FF232370BDE8104001F0B1
:1014900021B900BF820000202DE9F84F3F4B1B7897
:1014A000002B46D03E4F3F4E3B78022B12D13E4898
:1014B00001F0CEF903233B7001F0BEFB01F0C8FB45
:1014C0003A49B07801F0E8FF0021384601F0B0FA5F
:1014D00002F0B2F9364F3B78022B11D10622354982
:1014E000B81804F0C3FB824628B3032332483B708C
:1014F00001F0AEF900F0E2FA01F07AF904233B7052
:10150000D6E904AB5AEA0B0331D102F0A9FC2B4B0C
:10151000A3F8330001F06AF8C6E90401D6E90645EC
:1015200054EA05032ED101F0C7FB01F05FF8C6E9CC
:101530000601BDE8F88FDFF890B09BF80030FF2B74
:10154000DED11F4800F080FFFF288BF80000D7D0C5
:10155000032319483B7001F07BF91A499BF80000FE
:10156000D1F80F100123524600F08AFFC8E701F0BE
:101570003DF81AF5F0144BF100058D4208BF844286
:10158000C3D3CBE701F032F814F5F01845F10009A8
:10159000894508BF8045C6D3CBE700BF08010020BE
:1015A0006A830020C0000020E35D000009140000F1
:1015B00008840020165E0000F65D00003800002060
:1015C000E1130000E00000208200002010B50B4C69
:1015D000A37A8BB1A07801F031FE094B62889A8121
:1015E00090F82120DA8190F820201A76028AA3F858
:1015F0001920828AA3F81B2010BD00BFC000002064
:101600003800002070B5114E33780446E3B900F07D
:10161000DFFB01F06BF80E480E4D01F025FB01F0E9
:1016200081F8C5F8020001F077F8C5F8060001F06E
:1016300001F96861FFF7CAFF0748002C18BF204670
:1016400000F00CFA0123337070BD00BF08010020C8
:10165000D113000038000020ED1A000010B50A4C2C
:101660002378FF2B0ED1094800F0EEFEFF282070F2
:1016700008D00749BDE81040D1F81310012300221B
:1016800000F0FEBE10BD00BF82000020611400000B
:10169000E000002010B50A4C2378FF2B0ED109483A
:1016A00000F0D2FEFF28207008D00749BDE81040A6
:1016B000D1F813100123002200F0E2BE10BD00BFDC
:1016C000820000207D140000E0000020AF4B1B785A
:1016D0002DE9F0470646002B00F0B580DFF8E4A2C4
:1016E000DFF8E49254469AF80030092BFDD8DFE881
:1016F00013F076008F00AC00E300E50004017B01ED
:101700000A002B004900A24B9F7A0FB1002319E079
:10171000A04DA14801F09CF809232B714FF6FF73EF
:10172000EB8000F095FF0622014605F1080004F069
:10173000D0FA01233846AB7300F080FDE81C00F0BE
:1017400015FD08232370CEE79448954E40F2726150
:1017500000F038FD054620B10223337009232370C1
:1017600071E0904B4FF4A0201F7802F069FA01233A
:1017700000F548212A46384600F082FE01233370E6
:101780000723ECE7C6B1834D00232B70864B284618
:101790001B689847D5F808313BB14FF4FA7000F058
:1017A0005DFFD5F8080100F0E1FC794B9B7A1BB195
:1017B0007E4801F04DF8A9E77A4B4FF4A0201D7840
:1017C00002F03EFA012300F548210022284600F0ED
:1017D00057FE07232370724B01221A7033E06D4DC0
:1017E000734801F035F8092372492B7106224FF630
:1017F000FF7305F10800EB8004F06BFA0223002070
:10180000AB7300F01BFDE81C00F0B0FC012399E76E
:101810006248634E40F2726100F0D4FC054610B19C
:10182000022333709BE75F4B4FF4A0201F7802F038
:1018300007FA012300F548212A46384600F020FE29
:10184000012333702570BDE8F087564F36B3514DF4
:1018500000232B70544B28461B689847D5F8083155
:101860003BB14FF4FA7000F0F9FED5F8080100F032
:101870007DFC2B7893B1504800F0EAFF4F4B38784D
:10188000B3F80310B3F801204A430023114600F0D7
:10189000F7FD4B4B00221A60042353E74FF4A020BE
:1018A0003D7802F0CDF9012300F5482100222846B9
:1018B00000F0E6FD00238DE704238BE73F4F3878E7
:1018C00000F0BCFCD7F80710344800F07BFC05465C
:1018D00020B1334B02221A70052340E7384A1368BF
:1018E00001331360FA7D934201D203232AE72D4B83
:1018F000187800F0EBFD2570F5E6264DDFF8BC808A
:101900002F4F0023AB702846002E3CD02B70264B67
:101910001B689847D5F808313BB14FF4FA7000F0D6
:101920009DFED5F8080100F021FC1E4B18786B785D
:1019300033B3B8F80320EB889A4205D3B8F8051002
:101940008B421AD95B1AD21AB8F80130D8F80B10AA
:101950005A43511A002300F093FD2B789BB10023CA
:101960003B6098F817203B689A4233D9AB786BB349
:101970000B4B03221A700123F1E638BFCA1AE3E7C2
:1019800000F0A4FDE9E73B680133E9E72502002008
:10199000C0000020180100201C5E00001B01002078
:1019A000270200202402002010010020355E0000E4
:1019B000465E0000C40000205B5E0000E0000020E6
:1019C0000C01002026020020140100206B78002B5F
:1019D0008BD161E70F4B187800F078FD00230E489B
:1019E000237000F035FF7EE6002E3FF455AFD9F8A6
:1019F000000000283FF450AF084B5B78002B14BF69
:101A000003230423237000F0B1FB0023C9F8003046
:101A100069E600BF240200206C5E0000180100206F
:101A2000044B1A78022A03D100221A70FFF74EBE27
:101A3000704700BF27020020074B1A78012AD0B256
:101A400003D100221A70FFF741BE1A78032A02D18F
:101A500000201870F7E77047270200200F4A13781C
:101A600010B5D3B9C8B1012414700D4A13700D4AD2
:101A7000072111700C4A13600C4B186000F0C4FD74
:101A80000B4800F095FA0B4800F0DEFC0A4B18708A
:101A90002046BDE81040FFF719BE10BD250200200A
:101AA000270200202602002014010020100100203F
:101AB000211A0000391A000024020020084A08B543
:101AC00013785BB100231370064A136000F04CFAE0
:101AD000054B1878BDE8084000F064BD08BD00BFA4
:101AE0002502002010010020240200202DE9F84FDB
:101AF000DFF8D8B24FF48078A0F800809BF80A3065
:101B00004FF0000A044680F802A000F1080913BB58
:101B1000C0F80831437000F09BFD0622014648469C
:101B200004F0A4F898B9A57B012D10D1954800F0D8
:101B30008FFE2379132B0AD1204600F80F5B00F0AB
:101B400077F900F045F9BDE8F84FFFF73FBD0023F6
:101B50002370BDE8F88F861D304600F081FE0546F3
:101B6000304600F07AFE884907460622484604F0CF
:101B70007DF800283AD1A37BC4F80801032B04D0D8
:101B8000052B1ED0A4F80080E3E7804B5A89ADB244
:101B9000AA4240F0CF805B69BB4200F0CB807C481A
:101BA00000F056FE22797B480123093A2370D2B215
:101BB000314600F059FE10B100236370C9E70123DC
:101BC000FBE7724BDA89ADB2AA4240F0B3801B69E1
:101BD000BB4200F0AF80704800F03AFE22796F48B7
:101BE0000123093A2370D2B23146E2E706220BF113
:101BF0000401484604F03AF858B1694BE188B3F85B
:101C00000520684800F024FEA4F80080C4F808A16C
:101C10009FE7E31CC4F80831A37B0F2B00F2AB80D5
:101C2000DFE803F024A908962B7FA93BA9634B8C1E
:101C3000A9A99F715C4800F00BFE40F201132380BC
:101C40002379312B0DD1564D282204F10F0128465E
:101C500004F03FF86B79AA7943EA0223E380022378
:101C600000E00323E3730A23237172E74F4800F077
:101C7000EFFD40F201132380F1E74D4800F0E8FD4D
:101C800040F2011323802379312BEAD1282204F179
:101C90000F01434804F01DF8E1E7464800F0D8FD85
:101CA00040F2011323803E4931232371282204F19D
:101CB0000F00BDE8F84F04F00CB83F48334D00F07A
:101CC000C7FD40F20113238000F082FCC5F81D001F
:101CD000C5F8211000F08AFC5323C5F82910C5F877
:101CE00025004A2223712946E1E7344800F0B0FD7F
:101CF00040F2011323800223E3730A232371BDE81A
:101D0000F84FFFF7ABBC2E4800F0A2FD40F20113E4
:101D100023800223E3730A232371BDE8F84FFFF702
:101D2000B9BC0023C4F80831184BDB89ADB2AB4213
:101D30003FF451AF40F2011323800AE7214800F03D
:101D400087FD01232380A723144923719E22AEE738
:101D50000023C4F808310D4B5B89ADB2AB42E9D129
:101D60001DE7194800F074FD01232380A7230949CA
:101D700023719E229BE74FF4807323800023C4F8D5
:101D80000831E6E6775E0000D35F000038000020EF
:101D90008E5E000008840020A95E00006A83002097
:101DA000E0000020C15E0000F85E0000085F000057
:101DB000185F0000305F0000485F00005E5F0000B9
:101DC000795F00008A5F0000AD5F0000C000002066
:101DD00038B54FF010250C4CD5F884302380D5F859
:101DE00088306380D5F88C306360D5F890302381DB
:101DF00000220A21204601F007FFD5F880301B1A87
:101E000058425841A07238BDC0000020074B022242
:101E1000C3F80425D3F80024002AFBD00122C3F81C
:101E20001425D3F80024002AFBD0704700E00140BD
:101E300038B5044630B3144DFFF7E8FF0123C5F869
:101E40000435D5F80034002BFBD000220A212046AF
:101E500001F0DAFE4FF010232288C3F88000C3F8A7
:101E600084206288C3F888206268C3F88C202289A5
:101E7000C3F890200023044AC5F80435D2F8003492
:101E8000002BFBD038BD00BF00E0014010B500239F
:101E9000C1B2184621FA03F2C3F1070402F00102AD
:101EA0000133A240082B40EA0200F3D110BD00002C
:101EB00070B5184E184C3278022A18D11023C4F885
:101EC000083301232361D4F81031002BFBD0002507
:101ED0000023337000F0E6FB104B1B68CBB10E4AB9
:101EE000D2F848152846C9B2BDE8704018470C4BD7
:101EF000187800F0EBFAD4F80054012DE7D1D4F8AB
:101F000004110848D4F81C21D4F8483500F0A0FC8E
:101F1000DEE770BD2D0200200010004028020020E6
:101F20002E020020D95F000038B50D4C2578ADB1E8
:101F3000002002F015F90B4B1A78012A0CBF02227F
:101F400000254FF0000008BF1A7002F00BF92DB108
:101F500023781BB1BDE83840FFF7AABF38BD00BFEA
:101F60002C0200202D0200200D4A08B51378ABB1D9
:101F7000002313700B4A13600B4B1022C3F8082385
:101F800001221A61D3F81021002AFBD0074B1878E0
:101F900000F008FBBDE8084000F0BAB908BD00BF7A
:101FA0002C02002028020020001000402E020020F9
:101FB0002DE9F0475D4E96F800800446B8F1000F19
:101FC00040F099805A4B5B4883F8008000F03CFA5F
:101FD000594B1870594B1C6000F06EF9474680460B
:101FE000002800F08880564C04234FF00109C4F803
:101FF0000C35C320C4F81095FFF748FF0546C220F2
:10200000FFF744FF0304C12043EA0565FFF73EFFE5
:102010008246C020FFF73AFF054345EA0A25C4F887
:102020002455C720FFF732FF0546C620FFF72EFFD5
:102030000304C42043EA0565FFF728FF2843C4F8DA
:1020400028054846FFF722FF054640F22310FFF718
:102050001DFF03043B4843EA0565FFF717FF82466F
:102060003948FFF713FF054345EA0A25C4F81C5514
:102070008920FFF70BFF054648F6AB10FFF706FF78
:102080000304324843EA0565FFF700FF8246304803
:10209000FFF7FCFE45EA000343EA0A23C4F82035B3
:1020A0002C4BC4F82C75C4F83095C4F814352A4B61
:1020B000C4F818350323C4F83435D4F8343503F0A4
:1020C0000303022B1AD14FF6FF73C4F83C35234BA0
:1020D000C4F838351A4B224AC3F8042540F21312CB
:1020E000C3F800221F4B002283F8012302221A604A
:1020F00062B6012333704046BDE8F087D4F834352A
:1021000003F00303012B05D1FF23C4F83C3540F253
:102110000713DDE7D4F8343503F00303032BD9D1DB
:10212000114BC4F83C3540F25B63D1E72C02002030
:102130002D020020291F00002E020020280200206E
:10214000001000404523010067452301CDAB890005
:10215000EFCDAB8908011000FF0003012110010041
:102160002F02002000E100E05555550038B5124B14
:102170001B7813B90025284638BD0028FAD00F4C2B
:102180000F49002303708370C4F80031C4F80C3188
:10219000C4F81031C4F8041500F0C8F8054600284A
:1021A000E8D000F073FA01232360D4F81031002B3B
:1021B000FBD000F077FADEE72C0200200010004090
:1021C0002F020020184B1B7870B50D4613B9002460
:1021D000204670BD0028FAD0144B0026C3F80061D9
:1021E0000146C3F80C611248C3F8106100F0C4F84E
:1021F00004460028EBD035B10E4801230078324662
:10220000294600F03DF900F041FA084B1022C3F8CE
:1022100004230022C3F80421C3F81C2101225A60C0
:10222000054B1A70D4E700BF2C02002000100040BC
:102230002F0200202E0200202D02002027289FBF01
:102240000130044B4000C3F8080594BF0120002072
:10225000704700BF0010004070B5144E34781CB3B6
:10226000134BD3F81021FAB1D3F80423D2061BD5AF
:1022700010220025C3F808232846C3F8105101F0A6
:102280006FFF0C4B1A78012A0CBF03222C464FF02B
:10229000000008BF1A7001F065FF2CB133781BB144
:1022A000BDE87040FFF704BE70BD00BF2C020020E7
:1022B000001000402D020020104B1878E0B90122D8
:1022C0001A700F4B0221C3F800150E49C3F81415FC
:1022D0000D49C3F804150D49C3F80815C3F80001EA
:1022E000C3F808011A60D3F80021002AFBD0D3F804
:1022F0000801B0FA80F04009704700BF3C0400209C
:1023000000F000403103002000000101880000209F
:10231000044A137823B100231370034AC2F800352E
:10232000704700BF3C04002000F00040104B10B587
:102330001C78DCB10F4BC3F80C05C3F81015D3F8AB
:10234000042522F00102C3F80425D3F80425C3F8BC
:1023500004250022C3F80021C3F80821C3F8042192
:10236000C3F80421C3F8082101225A60204610BD99
:102370003C04002000F00040114B10B51C78ECB17B
:10238000104BC3F80C05C3F81015D3F8042522F040
:102390000102C3F80425D3F8042542F00102C3F872
:1023A00004250022C3F80021C3F80821C3F8042142
:1023B00003F580334FF00072C3F80425204610BDAA
:1023C0003C04002000F0004007B5194A13785BBBBD
:1023D00001211170174A13701373137682F8243099
:1023E00001F030FD20B9144B00200021C3E90001A9
:1023F00002F052FC002002F06FFC104B104A1868EB
:102400009B880090ADF80430694600230D48ADF874
:1024100000308DF8023002F007FF0A48012102F077
:10242000A9FF084802F03EFF03B05DF804FB00BFBF
:10243000480400204C040020080000200E6000002A
:10244000FD240000146000000B4B1B7870B50246A1
:1024500053B10A4C00230C2505FB03F1D8B20E5DE5
:1024600026B10133042BF7D1FF2003E063180125C7
:1024700065529A6070BD00BF480400204C040020E3
:1024800070B50E4C2478A4B1032814D80C240C4E3B
:1024900044433519345D64B1AB700A4B6A60D3F8BC
:1024A000042501230A440146074802F021FF0123C5
:1024B0006B70204670BD0024FBE700BF480400207D
:1024C0004C0400200010014014600000084B1B78F1
:1024D0006BB103280BD80C23064A4343D118D35CB5
:1024E0002BB100234B700146034802F0E7BE704752
:1024F000480400204C0400201460000070B504461D
:1025000000B301281ED002281CD003281AD00528A9
:1025100017D11F4802F03EFF1E49D1E900230130C8
:10252000121843F100031A48C1E9002302F032FFF8
:102530001949D1E900230130121843F10003C1E920
:10254000002370BD0C23154E6343F518F35CD3B123
:102550006B78C3B1AB785BB12046FFF7B7FF0C20B7
:1025600000FB04608368002BEBD0BDE87040184787
:102570000B4B6A68D3F8041505480A440123214629
:1025800002F0B6FEEBE72046BDE87040FFF79EBFC5
:102590001460000040040020080000204C040020CB
:1025A0000010014038B5084B1B78044653B103288E
:1025B00008D80C23054D5C432B5D1BB1FFF786FF4C
:1025C00000232B5538BD00BF480400204C040020D8
:1025D000044BD3F80405044BD3E90023101843F14E
:1025E000000170470010014040040020044BD3F864
:1025F0000405044BD3E90023101843F10001704790
:1026000000100140080000200F4B1A78D2B90122B7
:102610001A704FF080520D4BD2F8A4101970D2F8F6
:10262000A410090A5970D2F8A410090C9970D2F8B4
:10263000A410090ED970D2F8A8101971D2F8A820E8
:10264000120A5A71704700BF820400207C040020E7
:10265000004870477C04002020BF704720B1034B26
:10266000800143F001031847704700BF206000005D
:102670004FF0804301220021C3F81825C3F804114C
:102680009A60D3F80421002AFBD070474FF08043B2
:102690000022C3F8002101221A60D3F80021002A89
:1026A000FBD070474FF0804301225A607047000012
:1026B000BFF34F8F0549064BCA6802F4E06213432B
:1026C000CB60BFF34F8F00BFFDE700BF00ED00E020
:1026D0000400FA0508B5FFF7EBFF000008B5024B50
:1026E000B1221A60FFF7E4FF1C05004038B5084D21
:1026F0002C785CB9204601F0F5FB204601F0E8FC9F
:1027000001F00CFD034B186001232B7038BD00BF96
:102710008304002084040020014B9868704700BFA8
:10272000A4920020014BD868704700BFA4920020FB
:102730000D4B1B7810B50BB9012010BD0B4800F0F4
:1027400070F900210446094800F064F904F6FF74AA
:10275000074B201A010B0022186801F0DBFB054B28
:1027600001221A70E9E700BF8304002008840020DA
:10277000840400208804002070B5184B1B78BCB07E
:1027800005460C4613B901203CB070BD48B911F89C
:10279000014B1348224603F09CFA124BC3E90E4446
:1027A000F2E70146104800F035F921460246019053
:1027B00002A803F08EFA0D4B0B481E68002100F0B2
:1027C00029F90446284600F047F93044019A0023CD
:1027D00002A9001B01F090FBD6E700BF880400208F
:1027E00000930020A492002008840020840400208C
:1027F00008B50D4B1B7801219BB10C4B0020596192
:1028000001F073FC002201214FF4BE2001F082FB95
:10281000074900239E224FF4BE2001F06DFBFFF715
:1028200047FF084608BD00BF88040020A49200208E
:10283000088400204FF4BE23D3F80D007047000039
:10284000024B1A780AB901221A70704789040020D5
:102850000FB404B0704700207047D0F80E007047E6
:10286000B0F80900C0B270472DE9F34190F800C0FC
:10287000ACF10203012B04460D4616463FD9CA7A35
:102880000B7B9A423BD2591EC9B28A2937D8687B42
:10289000E82834D8A6F10A01C9B2E7292FD80132B5
:1028A0009A4201D0F12E2AD12F7A7A1F5742ACF1E9
:1028B000040E5741BEF1010FD5F80E2004F10608B1
:1028C00005F102011FD8D4F80DC094451ED1E2785D
:1028D0009A421BD1237B834218D1637CBB4215D122
:1028E0000622404603F0F5F9B5F80930A4F80130A6
:1028F0002B88A380022342482370FFF7A9FF002002
:1029000002B0BDE8F081BCF1000F25D1B5F8093067
:10291000A4F801302B7BE3706B7B2373D5F80E306A
:10292000C4F80D302B88A38067740622404603F05C
:10293000D0F90023E07804F112021F46D9B2884290
:102940002CD8304B9C4201D1FFF7F2FE01232E48D8
:102950002370FFF77DFF1BE0B4F801E0B5F809C074
:10296000E645D3D194F803C09C45CFD1237B834265
:10297000CCD1D4F80D309342C8D106224046019103
:1029800003F074F901990028C0D1637CBB42BDD12A
:10299000E87A23189B7C2BB10120B1E702F8017B78
:1029A0000133CBE7174B9C4214D105F11201FFF71D
:1029B000E3FEEB7A234401229A74E07804F11202D8
:1029C0000023D9B2884214D802230D482370FFF7A0
:1029D0003FFFE1E70D4B9C42EBD10D4BA6F1090205
:1029E000E826D2B205F1120100FB063003F071F9BE
:1029F000DFE712F8011B01330029E2D1CCE700BF69
:102A00002660000008840020476000006A830020E0
:102A10008A040020C378013199420CBF007BE82072
:102A20007047C378027B013BE82000FB032070471E
:102A3000064A904207D0064A904204D10548E8234E
:102A400001FB030070470020704700BF088400208E
:102A50006A8300208A040020E823584370470068F6
:102A600000BA7047F8B504220C461E49054603F02B
:102A7000FDF80646002833D101462422204603F003
:102A800051F9281DFFF7EBFF20602A7A6B7A43EAA1
:102A90000223A380AA7AEB7A43EA0223E3802B7B0A
:102AA00023722A7C6B7C43EA022305F11202E26066
:102AB000122222829A18AF186382A95C7A781433A2
:102AC00042EA012262830438EA18238362612844BF
:102AD000FFF7C5FF0123E06184F820303046F8BDE0
:102AE0000120FCE767600000F0B50C46C3B001218F
:102AF00000F0C8FE0546002840F0848001460290A0
:102B0000FB2203A803F00EF9FF2301930DF103024A
:102B10002B4601A902A88DF8035000F0C5FE05461A
:102B200028B100F07DFF0825284643B0F0BD3649A6
:102B3000042202A803F09AF818B100F071FF0125F1
:102B4000F2E724222946204603F0ECF803A8FFF719
:102B500086FF9DF810209DF81130206043EA022383
:102B6000A3809DF812209DF813300199E56043EA97
:102B70000223E3809DF814309DF8182023729DF8FD
:102B80001930656143EA022312222282C3F57F4293
:102B9000E832104463821433608323832A4602A8F8
:102BA00001F032F804F11C07E06184F820509DF830
:102BB0000330E3B90DF1030201A902A800F074FE8D
:102BC0000646E8B99DF8033001999BB102AB043980
:102BD0005818FFF744FF3A46054602A801F014F8DA
:102BE000421B53425341E06184F82030354600F0E7
:102BF00017FF99E73A4602A801F006F8E061D6E728
:102C00000825F4E707258FE76760000003785BB9C4
:102C1000064B1888064B1A888242064A88BF1880DD
:102C200012680AB119881047704700BFAC840020B1
:102C3000B0000020A88400204FF0A0430322C3F876
:102C4000142770474FF0A0430422C3F8142770479D
:102C50004FF0A0432022C3F8082570474FF0A0434F
:102C60002022C3F80C2570471FB50E4B1C78B4B951
:102C700001221A700C4A0D4B516818601068127AC4
:102C800001AB03C30A491A7068460A4B8DF8064027
:102C9000009302F07FFD01A9204602F0C3FD04B0BD
:102CA00010BD00BFA68400206B600000A884002037
:102CB0000D2C00000200060108B5064B1B783BB145
:102CC0000548012102F008FEBDE8084002F058BEA8
:102CD00008BD00BFA6840020AC840020CB0801F012
:102CE0000701C05C084100F00100704730B5CD0815
:102CF000012401F0070104FA01F1435749B212B16E
:102D00000B43435530BD23EA0103FAE72DE9F843AD
:102D100000248146884627462646944208EB040153
:102D200003D138463146BDE8F8834846FFF7D6FF61
:102D3000A4F12003C4F1200100FA03F320FA01F109
:102D400000FA04F50B432F431E430134E5E7F8B5C1
:102D50009DF8186014461D460E44B14200D1F8BDDE
:102D60004F1C04F001026408FFF7C0FF44EAC57479
:102D700039466D08F1E7D200C0E901224361002223
:102D8000009B0160C0E90322836170472DE9FF4782
:102D90009DF8306004469A46A3689E4215D8D4F840
:102DA000049025692068A9EB0507BE4213D253465B
:102DB00000962946FFF7CBFF236933442361A368BC
:102DC0009E1BA66004B0BDE8F087636903922046AD
:102DD0009847039AE0E75FFA87F8CDF800805346FA
:102DE00029460392FFF7B3FF039AC7F120030AFABB
:102DF00003F3A7F12000FA40A6EB080800211A43CC
:102E00002AFA00F05FFA88F32161009302432AFA5C
:102E100007F32068FFF79BFFA5EB0901314421610F
:102E2000CDE72DE9F84F04460D46D4E901329B1A4F
:102E3000AB4208D2A369204698476368A2685B1B2F
:102E40009B1AAB42F1D3E168D4F80490D4F800B0F7
:102E5000A9EB0106B54205EB010721D3F2B25846B2
:102E6000FFF754FF8846AA1A00218246D2B2E160D9
:102E70005846FFF74BFFA6F1200C01FA06F300FAC3
:102E80000CFCC6F1200220FA02F243EA0C031343C1
:102E9000B04040EA0A0043EA0801A7EB090703E053
:102EA0002A465846FFF732FFA368E7601D44A56035
:102EB000BDE8F88F0023C0E901314370837070478B
:102EC00070B51546837842789A4204460E4609D971
:102ED0000133837003781BB9084600F01DF8287091
:102EE000287870BD084600F017F8287000F07F00C1
:102EF00060702B7823F07F032370304600F00CF8CD
:102F000001232870A370EBE70023C0E90033C0E978
:102F10000233C0F890107047C3680F2B70B5044699
:102F200018D8D0F8900068B96268D05C234418744F
:102F3000E3680133E360236808332360A368013347
:102F4000A36070BD0821FFF76CFFE368C0B203F017
:102F50007F03EBE78268934207D2E36803F07F02C6
:102F600022440133107CE360EBE7D0F8900058BBBB
:102F7000216860684B1C2360FFF7B0FE0346D4F85D
:102F800090007BBB28BBD4E900100422FFF7BEFEF3
:102F900023680433451C23600026AE42DDD2D4F8FA
:102FA0009000D8B9D4E900100822FFF7AFFEA3685B
:102FB00003F07F0323440136187423680833236029
:102FC000A3680133A360E8E70121FFF72AFFC3B23A
:102FD000D5E70421FFF725FFC0B2D9E70821FFF7A5
:102FE00020FFE4E738BBD4E900100722FFF78EFE8C
:102FF00021680130C5B2D4F8900007312160F0B9E2
:1030000060680422FFF782FE236801300433C0B2F7
:1030100023600021CBB298429FD9A3685A1B02F0CB
:103020007F0222440131167C03F07F0222440133E7
:103030001674A360EEE70721FFF7F3FED8E704213B
:10304000FFF7EFFEE0E7000038B5054600F0F6F8C0
:1030500048B1054B01241C70044B1D7000F024F88E
:1030600000F089F8204638BDAE840020AF840020EF
:1030700008B5064B1A783AB100221A7000F025F80C
:10308000BDE8084000F089B808BD00BFAE8400204C
:10309000014B1878704700BFAE840020014B1878B0
:1030A000704700BFAF8400204FF0A04303220821E7
:1030B000C3F80C27C3F80815C3F84027C3F8202726
:1030C000C3F81C27C3F84C2770474FF0A0430422D5
:1030D000C3F84027C3F81C27C3F84C27C3F82027A0
:1030E000C3F82C27C3F83027C3F82027C3F80C27D0
:1030F00070474FF0A0434FF48072C3F80C2570471F
:103100004FF0A0434FF48072C3F8082570474FF08A
:10311000A0438022C3F80C2570474FF0A0438022C3
:10312000C3F8082570474FF0A0434FF40022C3F8BE
:10313000082570474FF0A0434FF40022C3F80C2538
:1031400070470620704707B500228DF8070001215F
:103150000DF1070000F02CF800F068F803B05DF8FE
:1031600004FB08B531B1012200F022F8BDE80840A7
:1031700000F05CB808BD4FF0A04303224FF400619B
:10318000C3F82C27C3F80815C3F83027C3F8202745
:103190004FF48072C3F80C2570474FF0A043002213
:1031A000C3F82C27C3F83027C3F820277047000046
:1031B0002DE9F0411C4C002323704FF0A0434FF445
:1031C000807500EB010E4FF40061C3F80C55A44666
:1031D00098460F464FF48056704504D101238CF871
:1031E0000030BDE8F081C3F80C15D2B9C3F80C6506
:1031F000C8F8087510F8015B082415F0800F04F179
:10320000FF34C3F80C754FEA450514BFC3F80865D1
:10321000C3F80C6514F0FF04EDB2C3F80875ECD1E7
:10322000DAE7C3F80865E3E7B0840020024A1378C0
:10323000002BFCD0704700BFB08400200238C0B221
:103240000F289ABF024B53F820000020704700BFA0
:10325000EC600000034B1B6813B1034907201847BB
:10326000704700BFBC840020746B00002DE9F04162
:10327000414FFB693C68E41A404B9B68DB08C4B0D3
:103280009C4228BF1C4600F0F9FA00254FF0FF08C9
:103290000646FB22294605A8CDE9038502F042FD3A
:1032A00041462246304602F03DFD354B1B78B8467C
:1032B00013BBBA7D6AB1012A17D01C46DFF8BC8067
:1032C00035190827B5424FD12E4A13681C441460A3
:1032D00014E02C4B03941B6812332B4A11683046C0
:1032E0002246194402F0F5FCE8E7264BB9891B6831
:1032F000039414330B44F0E7012B33D044B0BDE802
:10330000F081631BFF2B28BFFF2303A904A80393AD
:1033100000F0C4FB0238032812D8DFE800F0020DE9
:10332000181D98F816305BB97019039A04A902F0B9
:10333000D0FC039B1D4403E098F8163003B90393B7
:10334000A542BBD0039B002BDBD12C46B6E798F8F7
:103350001630012BF4D1E7E798F81630012B08BF9F
:103360000397EDE72F46EDE716F8012B00970023B2
:103370004046FFF70BFDA5E7E4840020C48400204D
:10338000B3000020E0840020B484002010B50C4C71
:1033900000F012FD0B4B2078012200211A7001F081
:1033A000DFFD207801F042FE01F074FE064B1B6841
:1033B00023B1BDE8104000210320184710BD00BF15
:1033C000B2000020C0840020BC840020114A10B547
:1033D000137883F0010313700F4A127E042A17D169
:1033E0000E4A12789A4213D00D4C00F0E5FC0021F1
:1033F000207801F0B5FD207801F018FE01F04AFEBA
:10340000084B1B6823B10021BDE81040084618474F
:1034100010BD00BFB8840020E4840020B9840020DF
:10342000B2000020BC840020F7B5194C0646236882
:10343000E06994F820101B1AFF2B28BFFF231844C3
:10344000DFB2E061C1B9C4340FB903B0F0BD1149B6
:103450002246A1F10C00FFF733FD4EB98DF80700AD
:1034600001210DF10700013FFFF77BFEFFB2EBE703
:10347000C3438DF80730F3E7A5680544EC18AC4268
:10348000E3D028460421FFF76CFE0135F7E700BFC3
:10349000E48400201485002008B5054B1960FFF76F
:1034A000D3FD044B00221A70034BFF221A7008BD93
:1034B000BC840020C0840020B300002008B5FFF7C2
:1034C000D7FD024BFF221A7008BD00BFB3000020D9
:1034D00038B50C460546C8220021204602F022FCE1
:1034E000EA88A988E28002FB01F3DB1023606B8A83
:1034F000A381EB68A3606B8BA382FF226B69A18021
:103500002361A2752B7A227683F0400343F3801364
:1035100084F820300023E36138BD00002DE9F04F2E
:103520008FB00446FFF7BAFDFFF788FEA34A029268
:10353000137805467BB9A24B05A91868FFF792FAE4
:103540009DF83410A9B99F4B1B680BB10520984713
:103550000FB0BDE8F08F012B04D105A92046FFF77D
:10356000C3FAEDE7974B1B68002BF1D09649072073
:10357000EDE7BDF818302A699A4204D1BDF81A3037
:103580006A699A4206D08F4B1B68002BE0D000215D
:103590000120DCE7029B197801290AD1204600F0BE
:1035A00051FA30B1874B1B68002BD1D00021042089
:1035B000CDE7864C864F874E214605A8FFF788FF4A
:1035C00000233B702B7A83F001023270824A137021
:1035D00001F0E4FBB846039628B17A4B1B68002B38
:1035E000B6D07E49C3E7FFF7ACFD7D4B7D4F1A880F
:1035F00038709B78ADF8102004A97B4A8DF8123002
:10360000C0B201F03BFC814638B101F043FD6D4B87
:103610001B68002B9CD07549A9E77549E86900F043
:103620009BFB94F82030BBB9494604F12400FFF716
:1036300041FC704904F13000FFF766FC00F01AF914
:103640006D4B009301466D4B6A484FF47E72FFF755
:1036500092FB6B4BC3F800900023E3612376A375C4
:10366000FFF755FDFFF75FFDE86800F053FBFFF73C
:1036700054FDE86800F04EFB3878012101F070FC41
:10368000039B2A7A1B789A4205D1FEF7E5FF98F84A
:103690000030002BF4D03878002101F061FC2E6856
:1036A0004FF0010B6B684B4513D8FFF743FD98F8BB
:1036B0000040002C00F0AA80387801F0B7FC01F03F
:1036C000E9FC404B1B68002B3FF442AF0021032074
:1036D0003DE798F80030002BE7D1FFF70AFD30787E
:1036E000FFF731FDD6E90101FFF73BFDF368D8078D
:1036F00012D53878012101F033FC039B2A7A1B781C
:103700009A4205D1FEF7A8FF98F80030002BF4D0BC
:103710003878002101F024FCF368190702D53069DC
:1037200000F0F8FAF3689A0729D598F8000030BB42
:10373000FFF77AFEE26923689A4239D394F820A011
:10374000BAF1000F15D12F485146FFF7B3FB2949B5
:103750002D48FFF7D9FB00F08DF8274B0093014669
:10376000264B24484FF47E72FFF705FB244BC3F829
:1037700000A00023E361022384F816B02376F368E7
:103780005B070DD54FF0030A98F8003043B90120CC
:10379000FFF74AFEE26923689A420CD3042323769A
:1037A0002B7E0BB1FFF7ACFC09F10109143679E768
:1037B00084F818B0B9E784F818A0E5E7B300002052
:1037C000B4840020BC8400208F6B0000E4840020BF
:1037D000C0840020B8840020B9840020A46B0000BD
:1037E000E16B0000B2000020CD330000C86B000088
:1037F0008D330000C48400206D320000553200007B
:10380000E08400200885002014850020029B1B789E
:10381000012B0AD100F0ECF938B1064B1B68002BE4
:103820003FF496AE2146062091E63878012101F05A
:1038300097FB8DE6BC84002070B50446FFF728FC9A
:10384000014630B9084B1B6863B1BDE870400220E7
:103850001847064B064D1C6000202870FFF75EFEDF
:10386000FF232B7070BD00BFBC840020B4840020F7
:10387000B300002000487047AC8500200048704726
:10388000A4890020074B10B51C7901223CB9C3E97B
:10389000024418601A7119745C74204610BD1046F9
:1038A000FCE700BF9C8D00202DE9F04F1C465A4BD1
:1038B0009BB01B78029282460F46002B00F0A4803A
:1038C00000231370002C35D026460FCE0CAD0FC54B
:1038D0000FCE0FC50FCE0FC596E80300D4E9023214
:1038E00085E80300D4F8009094F804800192657C88
:1038F000B8F1000F00F08A800026012B38BF0123A9
:103900003A680093314650461FFA89FBCDE90966B3
:10391000CDE905660B9602F005FABDF8001005AB7F
:1039200009AA584601F0FCF8E0B13E6003201BB044
:10393000BDE8F08FDFF8E4C066460FCE0CAD0FC5D2
:103940000FCE0FC50FCE0FC596E80300DCE902329B
:1039500085E80300DCF800909CF8048001929CF854
:103960001150C5E7CDE9070007A909A801F076F8CD
:1039700000284DD1079B08995A889200FF2AA8BFBA
:10398000FF225046039202F0A4F909A801F0A4F81E
:1039900000283FD1039A009B3A6013441E46019BC6
:1039A00009AA03F1010AB1B205AB584601F0B8F813
:1039B00048F20963984208BF029BCDF8309008BFD7
:1039C0000125CDE90E6A08BF1D708DF834808DF891
:1039D000415064B10CAD0FCD0FC40FCD0FC40FCD4E
:1039E0000FC495E8030084E8030000209FE70CADB6
:1039F0000FCD0A4E0FC60FCD0FC60FCD0FC695E8DF
:103A0000030086E80300F0E7022090E705208EE738
:103A100004208CE706208AE7188F00209C8D002068
:103A2000064B1B782BB1064B1A7922B10020187176
:103A30007047022070470120704700BF188F002098
:103A40009C8D00202DE9F041134C94F810518046D4
:103A50000F46FDB904F59071FFF746F894F8406100
:103A6000C4F80C810123FF22294604F10800C4E9AF
:103A7000455586F0010684F8103184F81C7184F8ED
:103A80001D5123706560C4F8085102F04BF93046AF
:103A9000BDE8F0810126FAE7D48D00202DE9F04F32
:103AA0004F4B2DED028B93F8008008EE100AC7B043
:103AB0008946B8F1000F00F091804A4F0A6897F8E4
:103AC00000A0002102F02EF9BAF1060F4FF0000419
:103AD00007D1C9F80040504647B0BDEC028BBDE8A5
:103AE000F08FFB22214607A806943D4602F01AF902
:103AF0008DF8174007F586736968D5F8082191425B
:103B00000CD139490DF11702A1F58070FFF7CCFEF9
:103B10000028E0D1D5F80821344B6A603149B7F864
:103B20003AC14A68D1F808118A4208BF00227A6077
:103B3000D7F814210192B7F8322102F1140EF4449F
:103B40000CF1030012320290039268688142D3D9CB
:103B50002E180DF1180B367A019A0BF804602E78A6
:103B60000244013A013E521A052E30D8DFE806F031
:103B700003171D222708122A29D14FF002022A70AA
:103B80004646D9F80020944201D016B3224618EEDA
:103B9000100AC9F8002006A902F09BF89BE7039ED3
:103BA000B24214D14FF00302E9E796450FD14FF02E
:103BB0000402E4E794450AD14FF00502DFE7029ED4
:103BC000964204D10134E4B24FF00602D7E7002652
:103BD000D7E701340130E4B26860B6E7C2467AE75D
:103BE000188F0020D48D0020DC8E0020E08E002075
:103BF000044B93F810211AB1002083F8100170478C
:103C000001207047D48D002030B53AB11368DB43F2
:103C10000A4D0144814204D1D84330BD4FF0FF33F7
:103C2000F6E710F8012B5340082213F0010418BFE7
:103C30002C46013A84EA5303F7D1EBE72083B8ED31
:103C400037B5104B012200210446C3F8001101A82A
:103C50001A600422D3F80051002DFBD0013AD3F8AA
:103C6000085500F8015B12F0FF02C3F80011F1D112
:103C700001225A600198A04201D803B030BD40082B
:103C8000F9E700BF00D0004010B5054C2078FEF7E2
:103C900089FCFF232370034B01221A7010BD00BF63
:103CA000B4000020198F002070B5054608B3134EEC
:103CB000134C002232702278FF2A0ED11148FEF7F1
:103CC000C3FBFF28207008D10F48FEF7C1FD237801
:103CD000FF2B02D10D48FEF7BBFD20780123002207
:103CE0002946FEF7CDFB10B90948FEF7B1FD337840
:103CF00003B170BDFEF7B0FCF9E700BF198F0020DB
:103D0000B4000020893C0000E46B0000FD6B000063
:103D1000116C0000024BC003B0FBF3F0FFF7C4BF0F
:103D200040420F00094B1A7810B53AB1084C0022F6
:103D300020781A70FEF736FCFF232370054B1B68B2
:103D400013B1BDE81040184710BD00BF1A8F002006
:103D5000B50000201C8F0020114B1A7870B5044666
:103D6000E2B901220F4D1A700F4B19602B78FF2B0F
:103D70002E460AD10D48FEF767FBFF28287004D1B4
:103D80000B48BDE87040FEF763BD30780123002288
:103D9000E103FEF775FB08B90648F2E770BD00BF06
:103DA0001A8F0020B50000201C8F0020253D000048
:103DB000E46B0000116C0000064B1A7810B53AB1A4
:103DC000054C002220781A70FEF7ECFBFF232370CD
:103DD00010BD00BF1A8F0020B5000020174B1A78C5
:103DE00072B901221A704FF08043D3F8001441B920
:103DF000134B19704FF08043D3F80024C3F800240C
:103E00007047D3F80014C80703D50D4B04221A706D
:103E1000F0E7D3F80014890701D5094BF7E7D3F889
:103E20000024120702D5064B0322F0E7D3F8003432
:103E30005B07DFD5024B0222E9E700BF208F00209D
:103E4000218F002008B5044B1B780BB9FFF7C6FF84
:103E5000024B187808BD00BF208F0020218F002062
:103E6000104A13781BB9012111700F4A13600F4BD0
:103E70000022C3F8002101221A60D3F80021002A91
:103E8000FBD0D3F80825D3F808059305074B48BFA6
:103E90006FEA80504FF0010248BF6FEA90505A60BD
:103EA000704700BF228F002004C5004000C00040C2
:103EB00008B5FFF793FFFEF7DBFBFEF785FAFEF789
:103EC000BFFC0020FDF79EFBFDF7E6FAFEF7C3FC02
:103ED0000028F9D1FEF7C0FBF6E743690BB1C068D3
:103EE0001847704702490348002200F026BE00BF71
:103EF000486C00001000002007B5009313460A46E6
:103F00000146034800F01DFE03B05DF804FB00BF4E
:103F10001000002013460A460146014800F018BE72
:103F20001000002038B50F4D2968044610220431D6
:103F3000043001F0CEFE296818221144A01801F0C7
:103F4000C8FE29680422343104F1340001F0C1FEB6
:103F5000296804F51770C722BDE8384001F51771CC
:103F600001F0B7BEB800002000B5ADF5617D0B498A
:103F70004FF46072684601F0ACFE6846FFF7D2FF6E
:103F800006494FF46072684601F070FEB0FA80F0A6
:103F900040090DF5617D5DF804FB00BFA49200208F
:103FA000F8B5284C2368013330D000225821201D59
:103FB000FFF72AFE2668321A56425641224F3D68C4
:103FC0002A68013239D000225821281DFFF71CFE33
:103FD0002B6883421CD16C68012C0AD00022C321BB
:103FE00005F51870FFF710FED5F85C42231A5C4205
:103FF0005C417EB1134915484FF4607201F069FECF
:10400000D4B1BDE8F8401148FFF78CBF0026D5E7D2
:104010000024EEE73CB139680C48BDE8F8404FF4A5
:10402000607201F056BE094C4FF4607200212046C8
:1040300001F078FE02236360F8BD002EF3D0002467
:10404000D8E700BF00F00700B8000020A4920020CD
:1040500070B51C4D002258210646281DFFF7D4FDDF
:1040600000222860C32105F51870FFF7CDFD4FF43D
:104070006072C5F85C022946134801F0F7FD20B9CB
:104080000EB9002070BDB047FBE7FFF76DFFB0B180
:104090000D4800220121FFF73DFF70B94FF4607217
:1040A00029460A4801F015FE0849074833464FF4EF
:1040B0006072FFF721FF0028E3D00320E2E70F2022
:1040C000E0E700BFA492002000F00700248F00204A
:1040D00010B5FFF707FF044628B9FFF761FF204638
:1040E000FFF7B6FF00B1032010BDFFF7B1BF00001E
:1040F00043F204031A68084B9A4201BF43F20803D3
:10410000186800F6FF7020F47F600CBF20F00F00ED
:104110004FF48050704700BFDBE5B15108B5FFF7A1
:10412000E7FF054B9B69184400F6FF7020F47F60A1
:1041300020F00F0008BD00BFA492002072B6024A12
:10414000136801331360704724960020034A1368F4
:10415000013B136003B962B6704700BF249600208C
:10416000FFF7ECBFFFF7F2BF37B550E8023F1FFA89
:10417000A3F5C488A54202BFBFF32F8F00220DE034
:10418000C48925448489A54228BF2D1BC3EA05455F
:1041900040E80254002CE8D14FF001028DF80320D2
:1041A0000193019B9DF803200B6002F0FF0322B1F5
:1041B0004B880068184403B030BD1846FBE70A88F6
:1041C0004B889A4209D150E8022FC2EA224240E8C5
:1041D0000223002BF7D1012070470020704710B553
:1041E000034653E8000F40EA010243E8002494F03C
:1041F000000FF6D110BD10B5034653E8002F02EAB8
:10420000010043E8000494F0000FF6D110BD10B592
:10421000034653E8002F02EB010043E8000494F04A
:10422000000FF6D110BD10B5034653E8002FA2EBE6
:10423000010043E8000494F0000FF6D110BD012105
:10424000FFF7CDBF0021FFF7D6BF10B5044622B15E
:10425000108821448C4203D110BD4FF6FF70F8E75F
:1042600043BA14F8010B9BB24340C3F3031253400B
:1042700083EA03335A0102F4FF529BB283EA02003D
:10428000E8E7000070B5064D0646002455F8043BEB
:104290000BB1304698470134042CF7D170BD00BFF4
:1042A000349600200B4A0C4B5188142000FB01313E
:1042B000CB6833B90420496810700122074800F028
:1042C00047BC07490523137002238B80012209682C
:1042D0000023F3E74C960020649600202400002081
:1042E000A096002007B5002305490093054A0968F8
:1042F0000548082300F025FC03B05DF804FB00BF6F
:10430000A0960020346C00002400002007B5002394
:1043100001460093034A0448082300F012FC03B04E
:104320005DF804FB2C6C00002400002013B5002372
:104330000C4600930146084A0848042300F001FC9B
:1043400038B90749142303FB04140123237402B072
:1043500010BD48F20D60FAE7286C00002400002030
:104360006496002037B50A480A4B42689C88196851
:1043700053880325033305709BB2002000909B00F7
:1043800001EB8401044800F0DCFB03B030BD00BF4A
:104390004C960020A0960020240000204388033380
:1043A00000EB830399420BD382884FF6FF739A4246
:1043B00008D0038833B18068431C58425841704785
:1043C000022070470120704738B5144B14220D4667
:1043D00002FB00302B68446804F58051A3B15C886F
:1043E000033403EB84048C4215D22368013312D0CA
:1043F0002046FFF7D3FF012808D002280BD0002861
:10440000F1D12C60012038BD0834ECE76388033318
:1044100004EB8304E7E70020F5E700BF6496002083
:10442000426873B504460D466AB3244BD9688A4284
:1044300029D31B699A4226D812F0030323D12049BD
:104440000089098988421ED12068916888421AD162
:104450001C494868824203D900F5805082420DD33E
:1044600089698A420CD901F580518A4208D2012219
:104470002A80B3FA83F0400902B070BD1A46F7E70C
:1044800048F20963F5E700232B801E460196288831
:1044900001A9FFF799FF30B92B8801339BB2012B9B
:1044A0002B80F3D9E8E7019B226899689142EED10D
:1044B0006360034B1B892381DEE700BF24000020DB
:1044C0004C960020649600202DE9F8431C461D4BB5
:1044D0001B7806460F46154673B382B37CB3DFF8EC
:1044E0006C804FF01409A388012B02D948F20960AF
:1044F00020E009FB03F318F803302BB9A08821460C
:10450000FFF762FF20B92060A3880133A380EAE7A8
:1045100023681EB1998832889142EFD11FB1198862
:104520003A889142EAD19A68C5E90023064B1B8973
:104530002B810020BDE8F88348F20160FAE748F2D9
:104540000460F7E7449600204C9600206496002013
:1045500008B5074B5888191DFFF736FF18B1BDE89D
:104560000840FFF7FFBEBDE80840FFF79BBE00BF55
:104570004C9600202DE9F04FA44FDFF8B49289B09B
:104580000646B8463B6823B9A1484946FFF7ECFD0B
:104590003860D8F8005029784B1E052B07D8DFE883
:1045A00013F022007C007C000E010E01660148F22F
:1045B0000E641422002103A801F0B4FB41F61D5340
:1045C0009C4208BF0024D8F8003004941A78013ABD
:1045D000052A00F2F881DFE812F0E401E8010802A0
:1045E000180224022E022EB18A4B00225A604FF488
:1045F0000644DEE72B79032B1DD8DFE803F0150214
:104600002B3685490B78022B08461AD00B7D022BDE
:104610004FF0010317D114225343C2180020C8548D
:104620005068FFF773FE03E001232B71FFF75AFE7A
:10463000002800F0BE80774B00225A6048F20D64DB
:10464000B7E70023E7E7734A13700023536041F68E
:104650001D54AEE771497248002302222B718A80F3
:104660000968012200F074FAE2E76C4C00262E7112
:104670002068694DFFF74AFE6A4BD4F800C05A889B
:1046800014235343EA18EE5451682160A188C2F8FC
:1046900004C011810222A280CAE7B5F814A0AA7D45
:1046A000DFF874B1AEB1022AEB8806D9142101FB00
:1046B0000AB1DA1C088902440A81142202FB0ABAF0
:1046C000C3F57F43BAF80A20FD331344AAF80A3031
:1046D0008DE7142303FB0AB318895C6804EB80049C
:1046E000062A69D8DFE802F0274E36441D5A040036
:1046F00041F61D54AA7DEB88022A06D9142101FB3C
:104700000AB1DA1C088902440A81142202FB0ABA9F
:10471000C3F57F43BAF80A20FD331344AAF80A30E0
:1047200047E74148414900234360AB690360FFF715
:1047300077FE00285BD00223AB750023009304238F
:10474000EA182146364800F0FCF9002831D048F23A
:104750000D64CFE72B69002B14BF03230123AB7536
:104760000023009305F10C02042304F10801E9E79A
:104770000123AB750022EB8800922A699B0004F1AB
:104780000C01DFE703290CBF05230623AB750023CB
:104790000093042305F10802E118D3E70623AB7563
:1047A000224B1988204B5868FFF7C0FD04460028AB
:1047B000A0D109B0BDE8F08F48F20E649AE7002E50
:1047C0007FF415AF2B79012B34D0022B3FF43FAF90
:1047D000002B7FF4ECAE02232B710DF10A01EB6884
:1047E000039303A8CDE90466FFF71AFE10B948F257
:1047F0000964DEE60498BDF80A108388EB8003881C
:104800002B81FFF793FD044627E000BF6096002050
:104810008C9600204496002064960020A0960020EC
:10482000240000204C96002028960020A896002006
:104830005C960020814B03AA3146A81DFFF744FE79
:104840007E4B044668B999880498FFF76FFD0446CB
:1048500048F209639C423FF4FAAE002C7FF4A9AE03
:10486000A7E708223146184601F05CFAF0E7002E6F
:104870007FF4BDAE724B1A7BB2B11E731A78013A47
:10488000062A3FF694AE01A151F822F03749000004
:104890005D4900007B49000081490000AF450000F0
:1048A00087490000994900001A78072AE6D801A133
:1048B00051F822F0D54800007D4800007D480000F6
:1048C000FB4800000F490000334900003349000055
:1048D000F74800001A895B4901321A8100225A8088
:1048E0001A730A78B2FA82F252099A720A7DB2FAFF
:1048F00082F25209DA72012207E0534958688A8825
:104900004088033202448A8002221A70B6E74D4C76
:104910005A884D49142505FB0242086854685060C6
:104920008888108102200C60888000211174062282
:10493000EBE70722E9E79A7A32B9DA7A8AB90022F4
:104940001A705A805A6082E63E4900229A72CA68FA
:10495000002AF2D1097C0029EFD05A80FFF7F8FD38
:1049600051E70022DA72374A116A0029E7D192F83A
:104970002420002AE3D00122EFE7FFF7F3FC42E70F
:10498000FFF790FC3FE72F4A5B88142101FB0323CC
:104990005868FFF7BBFC36E700225A60FFF7A2FC1D
:1049A00031E700238DF80C300DE001228DF80C204A
:1049B0001A89ADF818209A88DB680593ADF81A209B
:1049C00000238DF81C3003A8FFF75CFC0026494645
:1049D0001E48C8F80060FFF7F2FB1D480121FFF7F1
:1049E00022FC00287FF4CEADE3E602228DF80C20F5
:1049F0001A89ADF818209A88ADF81A20DA689B7DDC
:104A000005929A1F53425341DBE703228DF80C2095
:104A1000DA88ADF818201A89DB68ADF81A200593FA
:104A2000D1E704228DF80C20DB88ADF81830002384
:104A3000ADF81A30F3E70523B4E700BFAC960020C9
:104A40004C96002064960020A09600208C960020B2
:104A50009C9600204068FFF78DBD00002DE9F341D2
:104A60000D46044668B361B301A9FFF7D9FC58B3FA
:104A70006668002206213046B6F806807788FFF780
:104A8000E4FB791CADF806000DF10602890006F181
:104A90000800FFF7DAFB804519D10E4BBDF8040082
:104AA000142202FB003001210C30FFF7B0FB6368D9
:104AB0002E600C336B600123A372002002B0BDE8AE
:104AC000F08148F20460F9E748F20960F6E748F23D
:104AD0000C60F3E76496002013B50446A8B10DF10D
:104AE0000601FFF79DFC98B10C4ABDF80630142171
:104AF00001FB0323DA6872B1A27A62B1DA6800209E
:104B0000013ADA60A07202B010BD48F20460FAE720
:104B100048F20960F7E748F20560F4E76496002080
:104B200007B5ADF80600ADF804100DF1060001A9B7
:104B3000FFF7CAFC03B05DF804FB0B680160114687
:104B4000184710B40468E468A4465DF8044B604755
:104B500010B404682469A4465DF8044B6047000063
:104B6000014B4360002070473C6C000008467047D2
:104B700000207047024B1868003818BF01207047AA
:104B8000B496002008B50248FFF75CFB002008BD82
:104B9000B496002008B510461A4601F09AF8002095
:104BA00008BD00002DE9F043814687B014480E4649
:104BB00015469846FFF743FB0446F0B90746BD4249
:104BC00015D10F48FFF73EFBD9F808305BB1022240
:104BD0008DF800200022CDE90126CDE90325CDF88E
:104BE000148068469847204607B0BDE8F08306EB7E
:104BF000073000F0B1FC0137E1E71124F3E700BF13
:104C0000B49600202DE9F041804686B011480F4649
:104C100016461D46FFF713FB0446C8B9AA083146DD
:104C2000384600F0B1FC0B48FFF70CFBD8F8083011
:104C300053B101228DF800200C9A0592CDE901476D
:104C4000CDE9036568469847204606B0BDE8F08187
:104C50001124F9E7B496002038B5074C051E04F17D
:104C6000080318BF1C4623682BB11A6822605B68D2
:104C700028469847F7E738BDC096002020B9054B75
:104C800001225A70FFF7E8BF012802D1014A907053
:104C9000F8E77047B896002038B50C4C23789BB9DC
:104CA0000B486360A3602361E36000F0DDFB054611
:104CB00000F0E6FB01232370064BD3F800340BB160
:104CC0000123A370284638BD8525F5E7B896002056
:104CD0007D4C00000000014038B5134CA378054618
:104CE00003F0FF0073B115B16B68012098470020F5
:104CF000FFF736FAE3680133E3600020BDE838408F
:104D0000FFF730BAFFF72CFA25B1226913463BB9F9
:104D10002A602561E368002BECD100F0C3FBE9E7D2
:104D20009D42F7D01B68F2E7B896002000F1804062
:104D300000F5C040002382B0036003680193019B2B
:104D400002B07047800000F1A040D0F8002722F4A4
:104D50004032C0F80027D0F8003743EA0141C0F8DC
:104D600000177047054B4FF0FF32072843F820200B
:104D700084BFC01880F83C20704700BFCC9600204C
:104D8000C208054900F0070001238340885C20EA3F
:104D900003008854704700BF1197002010B51A4CCB
:104DA00094F849306BBB4FF0FF3222FA03F1C90788
:104DB00048BFE11803F1010348BF81F82420202BEC
:104DC000F3D10021C8B2FFF7CDFF01310929F9D194
:104DD000042200210D4800F0A5FF0D4BC02283F8EE
:104DE000062340221A604FF4BE70FFF79FFF094B65
:104DF0004FF00042C3F80423012384F84930002017
:104E000010BD0820FCE700BFCC96002011970020C1
:104E100000E100E00060004038B5164C251801465E
:104E200095F82400072809D8FFF79CFF95F924304E
:104E3000114A03F5A273002042F823006318FF22F1
:104E400004EBD10483F8242094F8452001F00700F6
:104E5000012383401A420BD04FF0A04301F5E072CA
:104E6000022043F82200BDE838400846FFF788BF1B
:104E700038BD00BFCC96002000600040F0B5364D34
:104E80002C1894F92440002C64DA8C78C4F3400484
:104E9000002C0BBF0823002309260826B34201D1AA
:104EA0000420F0BD55F8237001373FD12E1845F886
:104EB000232086F8243014B9EA1882F83C008A7856
:104EC000540713D4D60733D5820002F1A042D2F89A
:104ED000004724F00204C2F80047204EC20800F048
:104EE00007070124BC40B75C3C43B4548A780C7873
:104EF00012F0020225D09B0003F1804303F5C0436A
:104F00000202D3F8101521F4473121F44071C3F89F
:104F100010152404D3F8101502F4F85204F44034A8
:104F200022430A43C3F810250020BAE70133B5E74E
:104F30004C7800F5E0724FF0A046A40046F82240FD
:104F4000CBE7083B2B4493F8441041EA841483F8E0
:104F50004440E9E70820A4E7CC9600201197002000
:104F600038B51F4C251895F92420072A16DD224450
:104F700092F83C309B09032B0BD14FF0A043D3F8A0
:104F80001015C14001F001010231BDE83840FFF7C2
:104F9000D9BE012B0CBF02210321F6E7D3B2072BA8
:104FA0001CD8930003F1804303F5C043D3F81005E8
:104FB00040F00100C3F8100502F14000800080B20B
:104FC000FFF7B4FE51B195F9243054F823302BB1DA
:104FD000012303FA02F2034BC3F8042338BD00BFD8
:104FE000CC960020006000400E4B034493F924202F
:104FF000072A02DD0021FFF7A5BED3B2072B10D888
:10500000930003F1804303F5C043D3F8101521F05A
:105010000101C3F81015012303FA02F2024BC3F891
:1050200008237047CC9600200060004038B5174C2C
:105030000546FFF7D9FF621992F9243092F824202F
:10504000072A9FBF124A03F5A273002142F82310DA
:1050500004EBD50305F0070193F8452001238B40AD
:105060001A4209D005F5E0734FF0A042022142F840
:1050700023102846FFF784FE2C4494F82400FFF701
:1050800071FEFF2384F8243038BD00BFCC96002089
:105090000060004070B50F4E00244FF0FF3525FA38
:1050A00004F3D90707D5331993F924309A1C0AD190
:1050B0002046FFF7B1FE0134202CF0D1054B002231
:1050C00083F8492070BD002BF5DB2046FFF7AEFFCB
:1050D000F1E700BFCC9600202DE9F34700244B4DAB
:1050E00001944FF48072012102F1804303F5C04323
:1050F00090B21B68012B06D1D5F804330B4202D0C5
:10510000FFF714FE0C430432B2F5907F4FEA4101E1
:10511000EAD13F4B1B68012B0CD14FF4BE70FFF757
:1051200005FE4FF0A04344F00044D3F8202501923F
:10513000C3F8202514F0FF0F1AD0364F01260025A2
:10514000344210D0AB0003F1804303F5C043D3F8E1
:105150001005D3F8101557F8253023B1C1F30141DC
:10516000C0F3042098470135082D4FEA4606E7D1E1
:10517000002C1FDA274E4FF0A049374696F94430ED
:105180005A1C10D0C3F3C20202A90A44DCB212F8BE
:10519000042C03F03F054FF0010A03F007030AFA5D
:1051A00003F31A4209D1D9F820350193C9F8203503
:1051B000002BE3D102B0BDE8F08705F5E073284687
:1051C00059F82330C3F30148B8F1020F0CBF032193
:1051D0000221FFF7B7FD0AFA05F3C9F820357B195C
:1051E00093F9243057F82330002BDCD0A109032990
:1051F00004D0B8F1020F04D10129D4D12846984730
:10520000D1E7B8F1030FCED10229F6E700600040E4
:105210007C610040CC9600200023435082B043586C
:105220000193019B02B07047F0B51A4C437944F8E2
:105230002320194C03EB4303E35C43BB90F9045078
:105240008B7802795B01002DDBB21BDB134E7719E3
:1052500087F8003301236D0902F01F0203FA02F2FE
:1052600046F8252003680A88C3F808254379087999
:10527000C97803EB4303E218507091700122E254A5
:105280000020F0BD064D02F00F02AB54EAE7082003
:10529000F7E700BF1C9700201897002000E100E00E
:1052A00014ED00E0036801221A604379024A03EB1F
:1052B00043030221D15470471897002008B50068B5
:1052C0004FF480338B40C0F84833D0F804231342A6
:1052D00001D1002008BD5031890089B2C0F80833DF
:1052E0004358002BF5D0FFF797FF0D20F2E70000A1
:1052F0002DE9F04105464FF4803400681C4E8C4087
:10530000C0F84843C0F8084395F805C00CEB4C07BB
:10531000374422F07F4297F8018001F5A8774FEAE1
:105320004C0E40F82720B8F1000F11D0D0F80485BA
:10533000F4446644A8EB0207424588BF07F1FF1713
:10534000B27888BF07F57F47974201DA0D200CE05D
:105350003BB15031890089B2FFF75EFF2B68C3F87B
:1053600004432B680020C3F84443BDE8F08100BF2C
:1053700018970020024610B500680C464FF4827161
:10538000FFF74AFF13680222C3F844230CB1C3F8A5
:10539000042310BD437903EB4302044B13446FF025
:1053A0007F405A780AB19B78C01A7047189700203E
:1053B0002DE9F047244EDFF89880DFF89090002424
:1053C0004FF480353746D6F80433A8F580512B4288
:1053D00089B20DD0D8F8003053B1C6F848533046E2
:1053E000C6F80853FFF718FFD9F80030E0B2984725
:1053F0000134042C4FEA450508F10408E3D1D7F83D
:105400000433DA070BD5D7F8003143B10E484FF417
:105410008071FFF701FF0D4B20461B689847D7F8B6
:1054200004339B070DD5D7F8043153B106484FF428
:105430008271FFF7F1FE054BBDE8F0471B680520C0
:105440001847BDE8F08700BF001001401C970020FE
:105450004011014000F18040002382B003600368E6
:105460000193019B02B07047044A137923B90121CB
:105470001060918018467047852070472097002063
:10548000074B1A68D20704D4C02283F800230122F4
:105490001A604FF080430122C3F81825704700BFFF
:1054A00000E100E038B54FF48270FFF7D3FF4FF012
:1054B00080430222C3F804230A4AD06840F0807374
:1054C000D360094B1C6844F0010119605D6859689C
:1054D000491BB1F50A5FFAD31C60044BD06001226E
:1054E0001A6038BDF0ED00E0001000E00800004058
:1054F000124B1B6810B573B14FF48070FFF7AAFF11
:105500004FF080430122C3F808230D4B587910B99E
:105510005A711B6898470B4B1B6873B14FF482702C
:10552000FFF798FF4FF080430222C3F80823044B93
:10553000BDE810401B680120184710BD0001004065
:105540002097002004010040024AD2F80034002BCA
:10555000FBD0704700E001400A4908B50223C1F8BA
:105560000435BFF36F8FBFF34F8FC1F80805FFF706
:10557000EBFF0023C1F80435BFF36F8FBFF34F8FEC
:1055800008BD00BF00E001400E4B10B50124C3F878
:105590000445BFF36F8FBFF34F8F01EB8204401AB6
:1055A000A14208D1074B0022C3F80425BFF36F8F37
:1055B000BFF34F8F10BD431851F8042B1A60FFF74B
:1055C000C3FFEDE700E001402DE9F341104C114F1E
:1055D000114E00254FF48038236883B1D7F8043387
:1055E00008FA05F21A420AD00023236023680193C7
:1055F000A4F50040019B80B2D6E9003198470135FF
:10560000042D04F10404E7D102B0BDE8F08100BF2D
:1056100040810040008000402897002000F1804039
:1056200000F5E040002382B0036003680193019B12
:1056300002B07047F0B5504B504C1B6885B0002B42
:105640003DD04FF4827094F82E20FFF7E7FF2AB385
:1056500094F82F3013BB4A4B1B68002B33D04FF408
:105660008070FFF7DBFF638B94F82D108B424FD9CE
:1056700022895B1A9BB292B26383D31A626802EBEF
:105680004303404AC2F82C36C2F830164FF48270F9
:10569000FFF7C4FF3C4B01221A6014E063680293D9
:1056A0002389ADF80C30E36800218DF8041023BB8A
:1056B0002374236801A89847002384F82F3094F8B6
:1056C0002E30002BC7D1314B1B685BB14FF4887073
:1056D000FFF7A4FF0023237402238DF8043001A8F0
:1056E000236898472A4B1B68EBB14FF48A70FFF789
:1056F00095FF0023237405B0F0BD208B60836360A9
:105700002081E160002AD4D11E4B01221A60D0E72B
:10571000BCD1E368012284F82F2013B100226283F8
:10572000AFE76383B2E766694FF000470125002EBB
:10573000E1D0B6FA86F227FA02F34632920026EA60
:10574000030602F1804303F5E0431B68002BEED013
:105750001046FFF763FFA2F58C72D30882F00402B3
:10576000C2F380028DF808308DF8045023688DF85C
:10577000092001A89847DAE7047100403497002017
:105780000071004000700040047000401071004043
:105790001471004038B5204A92F82C300446002B92
:1057A00037D111601D490078C1F8F0056078C1F863
:1057B000F4050125137482F82D30536182F82F30DF
:1057C000E07882F82E006FF0004382F82C504FF4FE
:1057D0008270C1F80833FFF721FF4FF48070FFF7A4
:1057E0001DFF4FF48A70FFF719FFA3780C485B0187
:1057F000DBB280F80733802303600223C1F804334F
:1058000092F82E300BB1C1F80453C1F800550020B6
:1058100038BD0820FCE700BF34970020007000402E
:1058200000E100E070B52A4B1A7C02F0FF05002A67
:105830004BD10A79012A9CBF264CC4F8005500F1CF
:105840000C0503EB4504247924B993F82D40013469
:1058500083F82D4003EB4503CC790D7A8E781C71CB
:105860005D714B7836021B0106F4E06603F03003ED
:1058700033430E7806F003063343CE78360306F43E
:1058800080563343160406F4E02633434E79897973
:10589000360506F480160906334301F080710B4388
:1058A0000C4901EB0016000100F1804000F5E040DA
:1058B000012AC6F81835C0F81455C0F8104502D8AA
:1058C0000123C1F80035002000E0112070BD00BFA9
:1058D000349700200070004070B5264A264B0546DC
:1058E0001220C2F808031C7C022C03D1C2F8040366
:1058F000112070BD187C01281DD1D86818B1022371
:10590000C2F80433F4E7DD60198393F82E3063B9ED
:105910001A4A1368002BFCD04FF48070FFF77EFE0C
:10592000144BC3F82C56C3F83016124B0222C3F89E
:1059300004230020DDE7022093F82E40C2F8040380
:10594000012600201E745D601981D8603CB1598326
:1059500093F82D30C2F82C56C2F83036C9E7C2F899
:105960002C564FF48070C2F83016FFF757FE2046D1
:105970001660BEE7007000403497002000710040C0
:10598000084A117C0129CBB209D192F82E0018B136
:10599000054A002013607047044A136070470820CE
:1059A000704700BF34970020007000400470004032
:1059B000044B1868421C04BF034B1878831F5842DD
:1059C0005841704730010010E00F00F0074B1B7882
:1059D000062B09D1064B1B68C3F30313033B032BB0
:1059E00002D8044AD05C704700207047E00F00F0F6
:1059F000E80F00F0706C000008B5FFF7D9FF28B180
:105A0000834B844A1B68C3F304231360FFF7DEFF54
:105A100010B1814B814A1A60FFF7CAFF28B1804B51
:105A2000804A1B68C3F342331360FFF7CFFF20B1F6
:105A30007D4AD36823F08073D360FFF7B9FF40B18C
:105A40004FF080430022C3F80C21C3F81021C3F8A3
:105A50003825FFF7BBFF10B1744B03221A60FFF724
:105A6000B5FF40B1724B05221A6001229A670022ED
:105A70009A603F225A606F4B1A68511C0BBF6E4BE5
:105A80006E4B1A781B6802BF08331B68C3F30313FD
:105A9000062A4DD1033B032B03D8694AD35C002B64
:105AA00046D04FF08052674BD2F80414C3F820154B
:105AB000D2F80814C3F82415D2F80C14C3F828152A
:105AC000D2F81014C3F82C15D2F81414C3F83015FA
:105AD000D2F81814C3F83415D2F81C14C3F84015C2
:105AE000D2F82014C3F84415D2F82414C3F848158A
:105AF000D2F82814C3F84C15D2F82C14C3F850155A
:105B0000D2F83014C3F85415D2F83414C3F8601521
:105B1000D2F83814C3F86415D2F83C14C3F86815E9
:105B2000D2F84014C3F86C15D2F84424C3F8702599
:105B3000FFF73EFF28B1444B444A1B6803F04F0374
:105B40001360FFF735FF48B14FF08043D3F80024CE
:105B5000D20744BF6FF00102C3F80024354B1B6825
:105B6000062B0CD1354B1B68033B032B02D8384A5C
:105B7000D35C23B1374A136843F480631360364A19
:105B8000D2F8883043F47003C2F88830BFF34F8FE7
:105B9000BFF36F8F4FF01023D3F80022002A03DBEE
:105BA000D3F80432002B2FDA2C4B0122C3F8042542
:105BB000D3F80024002AFBD04FF010221521C2F8A0
:105BC0000012D3F80024002AFBD04FF01023152236
:105BD000C3F80422214B1A46D3F800140029FBD045
:105BE0000021C3F80415D2F80034002BFBD0BFF31A
:105BF0004F8F19491A4BCA6802F4E0621343CB6015
:105C0000BFF34F8F00BFFDE7164B174A1A6008BD60
:105C1000240300104035014074C007400DF0ADBAB8
:105C2000440200103C050040F0ED00E0A0050040FB
:105C30001056004030010010E00F00F03401001059
:105C4000686C000000C0004058020010E40E0040E4
:105C50006C6C00003C17004000ED00E000E00140EB
:105C60000400FA05BC0000200090D0037AB370B4A1
:105C700014460F2A15D902460B4640EA010515F0D5
:105C8000030F01D0013C0EE01946104604320433E4
:105C900006680D68AE4204D110461946043C042C37
:105CA000F2D8013C0ED00A46034604441146184679
:105CB0000133013206780D78AE4203D11846114601
:105CC000A342F3D100780B78C01A70BC7047002053
:105CD0007047844640EA010313F0030F18D184464D
:105CE000202A0BD32DE9F007B1E8F807A0E8F80760
:105CF000A2F12002202AF7D2BDE8F007042A07D338
:105D000051F8043B40F8043BA2F10402042AF7D204
:105D1000002A05D011F8013B00F8013B013AF9D106
:105D2000604670478446002A2DD010F0030F04D03F
:105D300000F8011B013A26D0F7E7C9B241EA012178
:105D400041EA0141202A12D3A2F120022DE9F003F9
:105D50000B460C460D460E460F4688468946A0E87F
:105D6000FA03203AFBD2BDE8F00320320BD0042A1C
:105D700005D340F8041B043A05D0042AF9D200F8F0
:0A5D8000011B013AFBD16046704799
:105D8C000000000000000000DB3E000000100000DE
:105D9C00000008000000000000000000554A000050
:085DAC000000000000000000EF
:105DB40075706461746520696D61676520656E64E2
:105DC400202D206F6B0075706461746520696D61AE
:105DD400676520656E64202D206572726F72007590
:105DE400706461746520696D6167652073746172A4
:105DF400740046494C455F5452414E534645525FE8
:105E040053544154455F50524F434553535F525589
:105E14004E000000000000004745545F48575F49AA
:105E24004E464F5F524551554553545F53454E447A
:105E340000485720696E666F2072656365697665F0
:105E44006400434F4E4E4543545F524551554553AC
:105E5400545F53454E4400436F6E6E656374206314
:105E64006F6D706C65746500446973636F6E6E6505
:105E7400637400476574204745545F48575F494E33
:105E8400464F207061636B657400476574205550FC
:105E9400444154455F4649524D5741524520706133
:105EA400636B657400476574205550444154455FE5
:105EB400494D414745207061636B657400506163CF
:105EC4006B6574206E6F7420666F722074686973DA
:105ED4002065736C2C2063757272656E7420736C0C
:105EE4006F742025692C207761697420736C6F743A
:105EF4002025690047657420494E49542070616328
:105F04006B6574004765742053594E432070616378
:105F14006B657400476574205345545F534554546E
:105F2400494E4753207061636B6574004765742064
:105F34004745545F53455454494E47532070616359
:105F44006B657400476574204745545F535441544E
:105F54005553207061636B65740047657420474F27
:105F6400544F5F424F4F544C4F414445522070614F
:105F7400636B657400476574205245534554207023
:105F840061636B657400476574204745545F5354DF
:105F9400415455535F5550444154455F494D414721
:105FA40045207061636B65740047657420474554F0
:105FB4005F5354415455535F5550444154455F46D3
:105FC40049524D57415245207061636B657400001E
:105FD40000000000004556454E54535F414444526E
:105FE4004553532025692C204556454E54535F5242
:105FF400535349454E442025692C20525353495349
:10600400414D504C45202D256900000006410000FB
:106014000010014011000400000000000338FDD806
:10602400704746494C455F5452414E534645525F72
:1060340053544154455F50524F434553535F574166
:1060440049540046494C455F5452414E53464552CB
:106054005F53544154455F4745545F5041434B455A
:10606400545300434154340000000002000009006E
:10607400D7D72F0077003A0002800180001E00036A
:10608400003B00B100C7008B9C960F00430060A545
:106094000089A500730700761F007E3100B88000D8
:1060A400870100880600A830003700193C00000072
:1060B4000F00002B01000000800000310000002BC5
:1060C400010000000097000000001200000097008B
:1060D40000A100009200000300010000270100005D
:1060E4000000270100000F002C61000000000000E8
:1060F40074610000986100000000000000000000CE
:10610400506100000000000000000000BC610000BD
:106114000000000000000000E0610000000000003A
:106124000000000004620000286200001600000065
:1061340001000000102700009800000098000000F3
:10614400010000001E00000001010000E0630000E7
:106154001400000001000000102700009800000057
:1061640028010000010000001E00000001050000DD
:1061740070650000140000000100000010270000FA
:106184008000000028010000010000001E00000043
:10619400000200007065000014000000010000000F
:1061A400102700008000000028010000010000000A
:1061B4001E0000000103000000670000140000003E
:1061C4000100000010270000900100002C010000D5
:1061D400010000001E00000001070000906800009C
:1061E4001400000000000000204E00000003000026
:1061F40000010000000000001E000000010B000070
:10620400206A0000110000000000000010270000B8
:106214008002000080010000010000001E00000058
:106224000109000012000000A66000000000000048
:106234000900000010270000740000004560000001
:106244000100000000000000000000007E000000CB
:106254008560000001000000000000000000000054
:106264000C0000008B60000004000000000000002F
:106274000000000001000000C960000003000000ED
:10628400010000000000000021000000BB600000CD
:1062940002000000000000000000000011000000E7
:1062A4008360000001000000000000000000000006
:1062B40044000000CD600000020000000000000067
:1062C4000000000045000000D06000000400000051
:1062D40000000000000000003C000000A560000079
:1062E4000100000000000000000000001800000091
:1062F4007F600000010000000000000000000000BA
:10630400220000008760000001000000000000007F
:106314000000000020000000A66000000000000053
:1063240001000000000000004E000000B260000008
:106334000100000000000000000000004F00000009
:10634400C660000002000000010000000000000020
:1063540024000000A660000000000000020000000D
:10636400000000004E000000B260000001000000C8
:1063740000000000000000004F000000C6600000A4
:1063840002000000010000000000000026000000E0
:10639400A6600000000000000400000000000000EF
:1063A40022000000896000000100000000000000DD
:1063B4000000000020000000A660000000000000B3
:1063C400010000000000000010000000A5600000B3
:1063D400010000000800000001000000120000009D
:1063E400A6600000000000000100000000000000A2
:1063F400740000004560000001000000000000007F
:10640400000000007E000000856000000100000024
:10641400000000000000000001000000E060000037
:106424000300000001000000000000002100000043
:10643400BB6000000200000000000000000000003B
:1064440044000000CD6000000200000000000000D5
:106454000000000045000000E460000004000000AB
:1064640000000000000000003C000000A5600000E7
:1064740001000000000000000000000018000000FF
:106484007F60000001000000000000000000000028
:1064940022000000876000000100000000000000EE
:1064A4000000000020000000A660000000000000C2
:1064B40001000000000000004E000000C660000063
:1064C4000200000000000000000000004F00000077
:1064D400C66000000200000001000000000000008F
:1064E40024000000A660000000000000020000007C
:1064F400000000004E000000C66000000200000022
:1065040000000000000000004F000000C660000012
:10651400020000000100000000000000260000004E
:10652400A66000000000000004000000000000005D
:10653400220000008960000001000000000000004B
:106544000000000020000000A66000000000000021
:10655400010000000000000010000000A560000021
:10656400010000000800000001000000120000000B
:10657400A660000000000000010000000000000010
:1065840074000000456000000100000000000000ED
:10659400000000007E000000856000000100000093
:1065A400000000000000000001000000E0600000A6
:1065B40003000000010000000000000021000000B2
:1065C400BB600000020000000000000000000000AA
:1065D40044000000E9600000020000000000000028
:1065E4000000000045000000E4600000040000001A
:1065F40000000000000000003C000000A560000056
:10660400010000000000000000000000180000006D
:106614007F60000001000000000000000000000096
:10662400220000008760000001000000000000005C
:106634000000000020000000A66000000000000030
:1066440001000000000000004E000000C6600000D1
:106654000200000000000000000000004F000000E5
:10666400C6600000020000000100000000000000FD
:1066740024000000A66000000000000002000000EA
:10668400000000004E000000C66000000200000090
:1066940000000000000000004F000000C660000081
:1066A40002000000010000000000000026000000BD
:1066B400A6600000000000000400000000000000CC
:1066C40022000000896000000100000000000000BA
:1066D4000000000020000000A66000000000000090
:1066E400010000000000000010000000A560000090
:1066F400010000000800000001000000120000007A
:10670400A66000000000000001000000000000007E
:10671400740000004560000001000000000000005B
:10672400000000007E000000856000000100000001
:10673400000000000000000001000000B76000003D
:106744000300000001000000000000002100000020
:10675400BB60000002000000000000000000000018
:1067640044000000BE6000000200000000000000C1
:106774000000000045000000C160000004000000AB
:1067840000000000000000003C000000A5600000C4
:1067940001000000000000000000000018000000DC
:1067A4007F60000001000000000000000000000005
:1067B40022000000876000000100000000000000CB
:1067C4000000000020000000A6600000000000009F
:1067D40001000000000000004E000000C660000040
:1067E4000200000000000000000000004F00000054
:1067F400C66000000200000001000000000000006C
:1068040024000000A6600000000000000200000058
:10681400000000004E000000C660000002000000FE
:1068240000000000000000004F000000C6600000EF
:10683400020000000100000000000000260000002B
:10684400A66000000000000004000000000000003A
:106854002200000089600000010000000000000028
:106864000000000020000000A660000000000000FE
:10687400010000000000000010000000A5600000FE
:1068840001000000080000000100000026000000D4
:106894008E60000001000000000000000000000005
:1068A40000000000906000000100000000000000F3
:1068B40000000000F80000009260000002000000E8
:1068C4000000000000000000F800000095600000D7
:1068D400020000000000000000000000F8000000BA
:1068E400D56000000200000000000000000000006D
:1068F400F8000000986000000200000000000000A2
:1069040000000000F80000009B600000020000008E
:106914000000000000000000F80000009E6000007D
:10692400020000000000000000000000F800000069
:10693400A160000002000000000000000000000050
:10694400F8000000D8600000020000000000000011
:1069540000000000F8000000A46000000200000035
:106964000000000000000000F8000000A760000024
:10697400020000000000000000000000F800000019
:10698400AA600000020000000000000000000000F7
:1069940061000000DB600000040000000000000053
:1069A4000000000013000000A660000000000000CA
:1069B400050000000000000010000000A6600000B8
:1069C40000000000030000000000000004000000BC
:1069D400A66000000000000009000000102700006D
:1069E40012000000A660000000000000010000008A
:1069F4000000000002000000A6600000000000008B
:106A04000100000000000000070000009360000087
:106A1400010000000100000000000000010000006F
:106A2400AD60000004000000000000000000000051
:106A34000600000074600000030000000000000075
:106A44000000000004000000A66000000000000038
:106A5400010000000000000065000000A5600000C7
:106A640001000000000000000000000065000000BC
:106A7400B2600000010000000000000000000000FF
:106A840000000000B46000000200000000000000EC
:106A940000000000500000007860000001000000C9
:106AA4000000000000000000300000007A600000D8
:106AB4000100000000000000000000006100000070
:106AC4007C600000040000000000000000000000E2
:106AD400820000008160000001000000000000004E
